:020000040800F2
:1000000000100020F54B00087D4B00087F4B0008D6
:10001000814B0008834B0008854B0008000000005E
:10002000000000000000000000000000874B0008F6
:10003000894B0008000000008B4B00088D4B000826
:10004000394C0008394C0008394C0008394C00087C
:1000500000000000394C0008394C0008394C0008F9
:10006000394C0008394C0008394C0008394C00085C
:10007000394C0008394C0008394C0008394C00084C
:10008000394C0008394C000800000000394C0008C9
:10009000394C0008394C0008394C0008ED4B000879
:1000A000394C0008394C0008394C00089D4B0008B9
:1000B000C54B000800000000394C0008000000009B
:1000C000F14B000800000000394C0008394C0008D2
:1000D000394C0008394C0008394C00080000000079
:1000E0000000000000000000394C0008394C0008F6
:1000F000394C0008394C0008394C0008394C0008CC
:10010000394C00080000000000000000394C0008D5
:1001100000000000000000000000000000000000DF
:1001200000000000000000000000000000000000CF
:1001300000000000000000000000000000000000BF
:1001400000000000000000000000000000000000AF
:100150000000000000000000394C0008394C000885
:08016000394C0008394C00087D
:100168000348044B834202D0034B03B1184770473E
:10017800A4000020A4000020000000000548064953
:100188000B1AD90F01EBA301491002D0034B03B19D
:1001980018477047A4000020A400002000000000B9
:1001A80010B5064C237843B9FFF7DAFF044B13B1B7
:1001B8000448AFF300800123237010BDA400002081
:1001C800000000003C4C000808B5044B1BB1044972
:1001D8000448AFF30080BDE80840CFE70000000006
:1001E800A80000203C4C0008032A10B516D940EAA4
:1001F800010C1CF0030F04460B4622D11946204679
:10020800D1F800E0D0F800C00433F44504F1040448
:1002180017D1043A032A20461946EFD8541EA2B132
:1002280000F1FF3C013901E0C3180CD01CF801EFC4
:1002380011F8012FA4EB0C039645F5D0AEEB0200A4
:1002480010BD541EECE7184610BD104610BD00BF87
:10025800844641EA000313F0030349D1403A23D30B
:100268000B6803604B6843608B688360CB68C3602E
:100278000B6903614B6943618B698361CB69C36116
:100288000B6A03624B6A43628B6A8362CB6AC362FE
:100298000B6B03634B6B43638B6B8363CB6BC363E6
:1002A80040304031403ADBD230320BD30B68036028
:1002B8004B6843608B688360CB68C3601030103133
:1002C800103AF3D20C3205D351F8043B40F8043B02
:1002D800043AF9D2043208D0D2071CBF11F8013B06
:1002E80000F8013B01D30B8803806046704700BFCC
:1002F800082A13D38B07B1D010F00303AED0C3F193
:100308000403D21ADB071CBF11F8013B00F8013BBC
:10031800A4D331F8023B20F8023B9FE7043AD9D333
:10032800013A11F8013B00F8013BF9D20B78037050
:100338004B7843708B78837060467047F8B50446F5
:100348000D4600F02DF8124B064693F900300F4683
:1003580001330FD022462B462046294601F0D4F916
:1003680040B92046294600F06FFD0022094B01F0F4
:10037800C1F910B930463946F8BD01F0F7FC212221
:10038800034605481A60BDE8F84000F061BD00BFAB
:10039800640000200000F03F245A000800F03CBA36
:1003A8002DE9F04FC64F21F00048B84504460D46E8
:1003B80087B033DD034608F1404808F5801858EA4D
:1003C80003030ED002460B4600F04CFD0B460246D6
:1003D80001F02AF804460B462046194607B0BDE846
:1003E800F08F9BA3D3E9002300F0F4FE9AA3D3E98E
:1003F800002326462F4604460D463046394600F06F
:10040800E9FE02460B462046294600F02DFD04462B
:100418000B462046194607B0BDE8F08FA94B0E469B
:1004280098450FDCB8F1795F80F254818CA3D3E949
:10043800002300F019FD0022A34B01F05BF900280E
:1004480040F002812046294600F0FEFC02460B4699
:1004580000209D4900F006FD00229C4B00F0BAFEEA
:1004680081A3D3E9002304460D4600F0B3FE80A320
:10047800D3E9002300F0F8FC22462B4600F0AAFE40
:100488007DA3D3E9002300F0EDFC22462B4600F0C3
:10049800A1FE7BA3D3E9002300F0E6FC22462B460D
:1004A80000F098FE78A3D3E9002300F0DBFC224695
:1004B8002B4600F08FFE76A3D3E9002300F0D4FC8E
:1004C80022462B4600F086FE73A3D3E90023CDE92C
:1004D80002012046294600F07DFE71A3D3E90023DE
:1004E80000F0C0FC22462B4600F074FE6EA3D3E950
:1004F800002300F0B9FC22462B4600F06BFE6CA3EB
:10050800D3E9002300F0AEFC22462B4600F062FE41
:100518006D4B002200F0A8FCCDE9040120462946D5
:1005280000F042FA6A4B824698458B466BDC0B46D4
:100538000022CDE90023024600F096FCDDE9042301
:1005480080468946DDE9020100F06EFF02460B464F
:100558004046494600F03EFE80468946DDE90001F6
:1005680002460B4600F036FE02460B462046294658
:1005780000F078FC04460D4650465946DDE900ABCC
:1005880052465B4600F070FC02460B462046294660
:1005980000F04AFF02460B4600F066FC02460B4696
:1005A8002DA1D1E9000100F05DFC02460B46404652
:1005B800494600F057FC524604460D465B465046F5
:1005C800594600F051FC02460B463BA1D1E9000117
:1005D80000F048FC02460B462046294600F042FC43
:1005E8000B46024634A1D1E9000100F03BFC044669
:1005F8000B46002E3FF7F0AE03F1004320461946A4
:1006080007B0BDE8F08FDDE90423DDE9020100F061
:100618000BFF52465B4600F0DDFD52465B4600F09C
:1006280023FC02460B4600F01FFC0BA3D3E9002372
:1006380000F018FC0B46024605A1D1E9000100F0C4
:1006480011FC04460B46D4E72B46C5E6AFF3008001
:10065800182D4454FB21F93F075C143326A6913C1E
:100668009C7500883CE4377E09F7FD0DE13D023FAB
:1006780088B20175E0EF493F3B8F68B52882A43FF7
:100688005544880E55C1C93F7D6FEB0312D6D43F40
:10069800555555555555C53F82922EB1C5B8B33FEE
:1006A80059018D1B6C06E63FC88A599CE52A004013
:1006B8004B2D8A1C273A0340182D4454FB21E93F4F
:1006C800FFFFEF3FFFFFDF3F0000F03F0000E03F8C
:1006D8003233EF3F02460B4600F07CFD38A3D3E9E6
:1006E80000238046894600F075FD37A3D3E900232F
:1006F80000F0BAFB42464B4600F06CFD34A3D3E948
:10070800002300F0AFFB42464B4600F063FD32A3E6
:10071800D3E9002300F0A8FB42464B4600F05AFDFF
:100728002FA3D3E9002300F09DFB42464B4600F07F
:1007380051FD2DA3D3E9002300F096FB42464B461A
:1007480000F048FD2AA3D3E9002382468B464046A1
:10075800494600F03FFD28A3D3E9002300F082FBBF
:1007680042464B4600F036FD25A3D3E9002300F0AE
:100778007BFB42464B4600F02DFD23A3D3E9002323
:1007880000F070FB42464B4600F024FD0022204B4F
:1007980000F06AFB02460B465046594600F044FEFC
:1007A80022462B4600F016FD22462B4600F05CFB45
:1007B80004460B462046194607B0BDE8F08F00BF37
:1007C80009F7FD0DE13D023F88B20175E0EF493FB1
:1007D8003B8F68B52882A43F5544880E55C1C93F50
:1007E8007D6FEB0312D6D43F555555555555C53F2A
:1007F80082922EB1C5B8B33F59018D1B6C06E63FF6
:10080800C88A599CE52A00404B2D8A1C273A034088
:100818000000F03F000000009C462DE9F84F5342CD
:100828005F4C13432CF0004949EAD373A342964620
:1008380007460E463DD84542054321F0004A4AEA9C
:10084800D575A54203468B4633D80CF1404505F5CE
:10085800801515433DD04FEAAC7505F002055AEAFC
:10086800030345EAD1752CD059EA020335D0A145D6
:1008780046D0A24531D0AAEB0909B9F1747F4FEAF5
:10088800295339DABCF1000F46DA3C3344DA002048
:100898000021012D58D0022D49D085B134A3D3E9C8
:1008A800002300F0DFFA34A3D3E9002300F0DAFADA
:1008B80005E03A4670466146334600F0D5FABDE891
:1008C800F88F022D10D0032DF9D12DA1D1E9000107
:1008D800F5E7BDE8F84F00F02FB9BBF1000F07DBD3
:1008E80029A1D1E90001EAE723A1D1E90001E6E75E
:1008F80027A1D1E90001E2E723A1D1E90001C8E776
:10090800CA4505F1FF3523D0022D29D8254B03EB25
:10091800C505D5E90601D2E7724663463846314631
:1009280000F082FD00F090FA00F006F9B1E710A39C
:10093800D3E9002300F096FA02460B460EA1D1E94E
:10094800000100F08FFABAE701F100431946B6E753
:10095800022D08D8134B03EBC505D5E90001AEE716
:1009680000200021ABE70CA1D1E90001A7E700BFF7
:10097800075C143326A6A13C182D4454FB210940DA
:10098800182D4454FB2109C0182D4454FB21F93F6C
:10099800182D4454FB21F9BF182D4454FB21E93F7D
:1009A8000000F07F704C00082DE9F843604E0546C2
:1009B80036EA01020C4600F09E8000290B46844668
:1009C80054DD091562D0C3F31303C807A1F2FF373A
:1009D80043F4801304D45B0003EBDC734FEA4C0C44
:1009E80000264FEADC7202EB43034FF0160E4FF479
:1009F800001234467F104FEA4C0CA118994202DCD1
:100A08005B1A8C1816445B00BEF1010E03EBDC7315
:100A18004FEA52024FEA4C0CEFD1754620204FF0B6
:100A280000420AE043D04FEADC71013801EB43038E
:100A38004FEA4C0C4FEA520242D0A34202EB0E019D
:100A4800F0DD002901EB020E0ADBA0461B1B614505
:100A580088BF03F1FF334446ACEB010C1544E2E7D1
:100A6800BEF1000FF1DB04F10108EFE721F00042CD
:100A7800024336D000294CD14FEADC2213461539FF
:100A88004FEA4C5C002AF7D0D6024CD400205B0019
:100A9800DD02044600F10100F9D51A4663460CFA56
:100AA80000FCC0F12000C340091B13438BE76145DC
:100AB800B9D8002901EB020ED2DB98460023CAE719
:100AC80053EA0C0311D16808731003F17F5303F53F
:100AD8000013F20748BF40F0004003EB07590546F2
:100AE8004C4628462146BDE8F883691C16BF681C99
:100AF80001364008E8E702460B4600F06BFB2A4641
:100B0800234600F0B1F905460C4628462146BDE8C3
:100B1800F883024600F0A6F902460B4600F084FC72
:100B280005460C46DDE7634620204FF0FF34BAE760
:100B38000000F07F000000002DE9F84FB64F21F0CB
:100B48000046BE4204460D468A461CDDB34B9E4213
:100B58000DDC0AD0B24BB34AB34CBAF1000FD8BF80
:100B6800134620461946BDE8F88F0028F2D02246E1
:100B78002B462046294600F077F904460B462046C6
:100B88001946BDE8F88FA94B9E4200F3AC80A3F14B
:100B9800DE739E4240F399804FF0FF3B22462B467E
:100BA8002046294600F016FB02460B468046894639
:100BB80000F010FB80A3D3E9002306460F4600F09F
:100BC80009FB7FA3D3E9002300F04EF932463B46E8
:100BD80000F000FB7CA3D3E9002300F045F932467E
:100BE8003B4600F0F7FA7AA3D3E9002300F03CF97A
:100BF80032463B4600F0EEFA77A3D3E9002300F033
:100C080033F932463B4600F0E5FA75A3D3E90023F1
:100C180000F02AF942464B4600F0DCFA72A3D3E909
:100C28000023804689463046394600F0D3FA70A33F
:100C3800D3E9002300F016F932463B4600F0CAFA21
:100C48006DA3D3E9002300F00DF932463B4600F0CE
:100C5800C1FA6BA3D3E9002300F004F932463B46FE
:100C680000F0B8FA68A3D3E9002300F0FBF8324695
:100C78003B4600F0AFFABBF1FF3F02460B46404649
:100C880049464FD06A4E00F0EFF806EBCB0B2246F0
:100C98002B4600F09FFADBE9082300F0E3F8224630
:100CA8002B4600F0DFF80B460246DBE9000100F0B6
:100CB800D9F8BAF1000F04460B46BFF652AF01F15E
:100CC800004320461946BDE8F88F51A3D3E9002315
:100CD80000F0CAF80022574B00F00CFD00283FF442
:100CE8005BAF2B463DE700F0AFF8534B04469E42FE
:100CF8000D4629DCA3F550239E4250DC02460B46E4
:100D080000F0B2F800224B4B00F0ACF802460B465C
:100D18002046294614461D464FF0000B00224FF08E
:100D2800804326E000F0A0F822462B4600F052FA55
:100D380002460B462046294600F094F804460B4626
:100D480020461946BDE8F88F3C4B9E421CDA00222B
:100D58003B4B00F087F802460B46204629461446CE
:100D68001D460022364B4FF0020B00F033FA0022EA
:100D7800304B00F079F802460B462046294600F031
:100D880053FB04460D4609E702460B4600202D4951
:100D980000F04AFB4FF0030B04460D46FEE6002226
:100DA800244B00F05FF802460B46204629464FF0D8
:100DB800010B14461D46DAE711DA22E33AAD903FFB
:100DC800EB0D76244B7BA93F513DD0A0660DB13F7A
:100DD8006E204CC5CD45B73FFF8300922449C23FE2
:100DE8000D5555555555D53F2F6C6A2C44B4A2BFA7
:100DF8009AFDDE522DDEAD3F6D9A74AFF2B0B33F6F
:100E0800711623FEC671BC3FC4EB98999999C93FE6
:100E18009C7500883CE4377EFFFF0F440000F07F9C
:100E2800FB21F93FFB21F9BF182D4454FFFFDB3F9D
:100E3800A04C00080000F03FFFFFF23F0080034095
:100E48000000F83F0000F0BF21F00041704700BFEC
:100E580000200149704700BF0000F87F81F0004181
:100E680002E000BF83F0004330B54FEA41044FEA87
:100E7800430594EA050F08BF90EA020F1FBF54EA22
:100E8800000C55EA020C7FEA645C7FEA655C00F0BE
:100E9800E2804FEA5454D4EB5555B8BF6D420CDD8F
:100EA8002C4480EA020281EA030382EA000083EA12
:100EB800010180EA020281EA0303362D88BF30BDB2
:100EC80011F0004F4FEA01314FF4801C4CEA113108
:100ED80002D0404261EB410113F0004F4FEA033367
:100EE8004CEA133302D0524263EB430394EA050FF2
:100EF80000F0A780A4F10104D5F1200E0DDB02FA61
:100F08000EFC22FA05F2801841F1000103FA0EF2F4
:100F1800801843FA05F359410EE0A5F120050EF1BA
:100F2800200E012A03FA0EFC28BF4CF0020C43FAEB
:100F380005F3C01851EBE37101F0004507D54FF0F8
:100F4800000EDCF1000C7EEB00006EEB0101B1F548
:100F5800801F1BD3B1F5001F0CD349085FEA30008E
:100F68004FEA3C0C04F101044FEA445212F5800F99
:100F780080F09A80BCF1004F08BF5FEA500C50F136
:100F8800000041EB045141EA050130BD5FEA4C0C19
:100F9800404141EB0101013C28BFB1F5801FE9D276
:100FA80091F0000F04BF01460020B1FA81F308BF99
:100FB8002033A3F10B03B3F120020CDA0C3208DD65
:100FC80002F1140CC2F10C0201FA0CF021FA02F140
:100FD8000CE002F11402D8BFC2F1200C01FA02F1B0
:100FE80020FA0CFCDCBF41EA0C019040E41AA2BFD5
:100FF80001EB0451294330BD6FEA04041F3C1CDA9D
:101008000C340EDC04F11404C4F1200220FA04F0BC
:1010180001FA02F340EA030021FA04F345EA030166
:1010280030BDC4F10C04C4F1200220FA02F001FA28
:1010380004F340EA0300294630BD21FA04F02946AA
:1010480030BD94F0000F83F4801306BF81F4801143
:101058000134013D4EE77FEA645C18BF7FEA655CB6
:1010680029D094EA050F08BF90EA020F05D054EA88
:10107800000C04BF1946104630BD91EA030F1EBF8D
:101088000021002030BD5FEA545C05D14000494191
:1010980028BF41F0004130BD14F580043CBF01F584
:1010A800801130BD01F0004545F0FE4141F470016A
:1010B8004FF0000030BD7FEA645C1ABF1946104645
:1010C8007FEA655C1CBF0B46024650EA013406BF46
:1010D80052EA033591EA030F41F4002130BD00BF05
:1010E80090F0000F04BF0021704730B54FF48064C2
:1010F80004F132044FF000054FF0000150E700BF43
:1011080090F0000F04BF0021704730B54FF48064A1
:1011180004F1320410F0004548BF40424FF000018E
:101128003EE700BF42004FEAE2014FEA31014FEAD1
:1011380002701FBF12F07F4393F07F4F81F0605120
:10114800704732F07F4208BF704793F07F4F04BF6B
:1011580041F40021704730B54FF4607401F0004548
:1011680021F000411CE700BF50EA010208BF7047A8
:1011780030B54FF000050AE050EA010208BF704799
:1011880030B511F0004502D5404261EB41014FF402
:10119800806404F132045FEA915C3FF4D8AE4FF00A
:1011A80003025FEADC0C18BF03325FEADC0C18BFED
:1011B800033202EBDC02C2F1200300FA03FC20FA3E
:1011C80002F001FA03FE40EA0E0021FA02F114448B
:1011D800BDE600BF70B54FF0FF0C4CF4E06C1CEAA4
:1011E80011541DBF1CEA135594EA0C0F95EA0C0F15
:1011F80000F0DEF82C4481EA030621EA4C5123EA88
:101208004C5350EA013518BF52EA033541F48011B6
:1012180043F4801338D0A0FB02CE4FF00005E1FB69
:1012280002E506F00042E0FB03E54FF00006E1FBB3
:1012380003569CF0000F18BF4EF0010EA4F1FF04F6
:10124800B6F5007F64F5407404D25FEA4E0E6D4136
:1012580046EB060642EAC62141EA55514FEAC52047
:1012680040EA5E504FEACE2EB4F1FD0C88BFBCF5C3
:10127800E06F1ED8BEF1004F08BF5FEA500E50F174
:10128800000041EB045170BD06F0004646EA01013A
:1012980040EA020081EA0301B4EB5C04C2BFD4EB6C
:1012A8000C0541EA045170BD41F480114FF0000E65
:1012B800013C00F3AB8014F1360FDEBF002001F0D3
:1012C800004170BDC4F10004203C35DA0C341BDC4D
:1012D80004F11404C4F1200500FA05F320FA04F01F
:1012E80001FA05F240EA020001F0004221F0004153
:1012F80010EBD37021FA04F642EB06015EEA430EC6
:1013080008BF20EAD37070BDC4F10C04C4F12005F5
:1013180000FA04F320FA05F001FA04F240EA0200A8
:1013280001F0004110EBD37041F100015EEA430E79
:1013380008BF20EAD37070BDC4F1200500FA05F299
:101348004EEA020E20FA04F301FA05F243EA020318
:1013580021FA04F001F0004121FA04F220EA020027
:1013680000EBD3705EEA430E08BF20EAD37070BD6D
:1013780094F0000F0FD101F00046400041EB01014D
:1013880011F4801F08BF013CF7D041EA060195F02F
:10139800000F18BF704703F00046520043EB0303E9
:1013A80013F4801F08BF013DF7D043EA06037047D6
:1013B80094EA0C0F0CEA135518BF95EA0C0F0CD0E1
:1013C80050EA410618BF52EA4306D1D181EA030127
:1013D80001F000414FF0000070BD50EA410606BF21
:1013E8001046194652EA430619D094EA0C0F02D166
:1013F80050EA013613D195EA0C0F05D152EA0336AB
:101408001CBF104619460AD181EA030101F00041C8
:1014180041F0FE4141F470014FF0000070BD41F011
:10142800FE4141F4780170BD70B54FF0FF0C4CF4EB
:10143800E06C1CEA11541DBF1CEA135594EA0C0F0A
:1014480095EA0C0F00F0A7F8A4EB050481EA030E57
:1014580052EA03354FEA013100F088804FEA03333E
:101468004FF0805545EA131343EA12634FEA02220C
:1014780045EA111545EA10654FEA00260EF00041CD
:101488009D4208BF964244F1FD0404F5407402D21F
:101498005B084FEA3202B61A65EB03055B084FEAB0
:1014A80032024FF480104FF4002CB6EB020E75EBAD
:1014B800030E22BFB61A754640EA0C005B084FEAD5
:1014C8003202B6EB020E75EB030E22BFB61A754652
:1014D80040EA5C005B084FEA3202B6EB020E75EB9D
:1014E800030E22BFB61A754640EA9C005B084FEA15
:1014F8003202B6EB020E75EB030E22BFB61A754622
:1015080040EADC0055EA060E18D04FEA051545EA10
:1015180016754FEA06164FEAC30343EA52734FEAB9
:10152800C2025FEA1C1CC0D111F4801F0BD141EA32
:1015380000014FF000004FF0004CB6E711F4801F97
:1015480004BF01430020B4F1FD0C88BFBCF5E06F77
:101558003FF6AFAEB5EB030C04BFB6EB020C5FEA87
:10156800500C50F1000041EB045170BD0EF0004EDC
:101578004EEA113114EB5C04C2BFD4EB0C0541EA0E
:10158800045170BD41F480114FF0000E013C90E60B
:1015980045EA060E8DE60CEA135594EA0C0F08BFCF
:1015A80095EA0C0F3FF43BAF94EA0C0F0AD150EACE
:1015B80001347FF434AF95EA0C0F7FF425AF104661
:1015C80019462CE795EA0C0F06D152EA03353FF489
:1015D800FDAE1046194622E750EA410618BF52EA06
:1015E80043067FF4C5AE50EA41047FF40DAF52EADA
:1015F80043057FF4EBAE12E74FF0FF3C06E000BF77
:101608004FF0010C02E000BF4FF0010C4DF804CD83
:101618004FEA410C7FEA6C5C4FEA430C18BF7FEA43
:101628006C5C1BD001B050EA410C0CBF52EA430C71
:1016380091EA030F02BF90EA020F0020704710F1F1
:10164800000F91EA030F58BF994208BF90422CBF80
:10165800D8176FEAE37040F0010070474FEA410C79
:101668007FEA6C5C02D150EA013C07D14FEA430C97
:101678007FEA6C5CD6D152EA033CD3D05DF8040B08
:10168800704700BF8446104662468C46194663463A
:1016980000E000BF01B5FFF7B7FF002848BF10F111
:1016A800000F01BD4DF808EDFFF7F4FF0CBF012056
:1016B80000205DF808FB00BF4DF808EDFFF7EAFFD2
:1016C80034BF012000205DF808FB00BF4DF808ED8D
:1016D800FFF7E0FF94BF012000205DF808FB00BF82
:1016E8004DF808EDFFF7CEFF94BF012000205DF80C
:1016F80008FB00BF4DF808EDFFF7C4FF34BF012019
:1017080000205DF808FB00BF4FEA410C7FEA6C5CE3
:1017180002D150EA013C0AD14FEA430C7FEA6C5CE3
:1017280002D152EA033C02D14FF0000070474FF05B
:10173800010070474FEA410212F5001215D211D587
:101748006FF47873B3EB625212D94FEAC12343F0B6
:10175800004343EA505311F0004F23FA02F018BF38
:10176800404270474FF00000704750EA013005D101
:1017780011F0004008BF6FF0004070474FF00000C4
:10178800704700BF4FEA4102B2F1E04324BFB3F50E
:10179800001CDCF1FE5C0DD901F0004C4FEAC002E0
:1017A8004CEA5070B2F1004F40EB830008BF20F0C4
:1017B8000100704711F0804F21D113F13872BCBF7E
:1017C80001F00040704741F480114FEA5252C2F1D3
:1017D8001802C2F1200C10FA0CF320FA02F018BF1C
:1017E80040F001004FEAC1234FEAD32303FA0CFC6F
:1017F80040EA0C0023FA02F34FEA4303CCE77FEAFE
:10180800625307D150EA01331EBF4FF0FE4040F447
:101818004000704701F0004040F0FE4040F40000F6
:10182800704700BF80F0004002E000BF81F0004137
:1018380042001FBF5FEA410392EA030F7FEA226C6E
:101848007FEA236C6AD04FEA1262D2EB1363C1BFFE
:10185800D218414048404140B8BF5B42192B88BF6D
:10186800704710F0004F40F4000020F07F4018BF90
:10187800404211F0004F41F4000121F07F4118BFB0
:10188800494292EA030F3FD0A2F1010241FA03FC58
:1018980010EB0C00C3F1200301FA03F100F0004340
:1018A80002D5494260EB4000B0F5000F13D3B0F108
:1018B800807F06D340084FEA310102F10102FE2A77
:1018C80051D2B1F1004F40EBC25008BF20F00100E7
:1018D80040EA03007047490040EB0000013A28BF86
:1018E800B0F5000FEDD2B0FA80FCACF1080CB2EB09
:1018F8000C0200FA0CF0AABF00EBC2505242184387
:10190800BCBFD0401843704792F0000F81F400012B
:1019180006BF80F400000132013BB5E74FEA4103FE
:101928007FEA226C18BF7FEA236C21D092EA030F6A
:1019380004D092F0000F08BF0846704790EA010FE4
:101948001CBF0020704712F07F4F04D1400028BF11
:1019580040F00040704712F100723CBF00F50000F3
:10196800704700F0004343F0FE4040F40000704729
:101978007FEA226216BF08467FEA236301464202D5
:1019880006BF5FEA412390EA010F40F480007047E8
:101998004FF0000304E000BF10F0004348BF40428E
:1019A8005FEA000C08BF704743F0964301464FF0CA
:1019B80000001CE050EA010208BF70474FF0000326
:1019C8000AE000BF50EA010208BF704711F0004367
:1019D80002D5404261EB41015FEA010C02BF844637
:1019E8000146002043F0B64308BFA3F18053A3F596
:1019F8000003BCFA8CF2083AA3EBC25310DB01FADD
:101A080002FC634400FA02FCC2F12002BCF1004F60
:101A180020FA02F243EB020008BF20F001007047F1
:101A280002F1200201FA02FCC2F1200250EA4C0045
:101A380021FA02F243EB020008BF20EADC7070478B
:101A48004FF0FF0C1CEAD0521EBF1CEAD15392EA99
:101A58000C0F93EA0C0F6FD01A4480EA010C400275
:101A680018BF5FEA41211ED04FF0006343EA5010CF
:101A780043EA5111A0FB01310CF00040B1F5000F11
:101A88003EBF490041EAD3715B0040EA010062F1C0
:101A98007F02FD2A1DD8B3F1004F40EBC25008BFAA
:101AA80020F00100704790F0000F0CF0004C08BFC8
:101AB80049024CEA502040EA51207F3AC2BFD2F195
:101AC800FF0340EAC250704740F400004FF00003A3
:101AD800013A5DDC12F1190FDCBF00F000407047DD
:101AE800C2F10002410021FA02F1C2F1200200FA1B
:101AF80002FC5FEA310040F1000053EA4C0308BFE2
:101B080020EADC70704792F0000F00F0004C02BF32
:101B1800400010F4000F013AF9D040EA0C0093F0AD
:101B2800000F01F0004C02BF490011F4000F013B07
:101B3800F9D041EA0C018FE70CEAD15392EA0C0F75
:101B480018BF93EA0C0F0AD030F0004C18BF31F0E0
:101B5800004CD8D180EA010000F00040704790F0B6
:101B6800000F17BF90F0004F084691F0000F91F05A
:101B7800004F14D092EA0C0F01D142020FD193EA20
:101B88000C0F03D14B0218BF084608D180EA0100A8
:101B980000F0004040F0FE4040F40000704740F084
:101BA800FE4040F4400070474FF0FF0C1CEAD05252
:101BB8001EBF1CEAD15392EA0C0F93EA0C0F69D0AE
:101BC800A2EB030280EA010C49024FEA402037D019
:101BD8004FF0805343EA111143EA10130CF0004010
:101BE8008B4238BF5B0042F17D024FF4000C8B4200
:101BF80024BF5B1A40EA0C00B3EB510F24BFA3EBE0
:101C0800510340EA5C00B3EB910F24BFA3EB9103AF
:101C180040EA9C00B3EBD10F24BFA3EBD10340EA09
:101C2800DC001B0118BF5FEA1C1CE0D1FD2A3FF64F
:101C380050AF8B4240EBC25008BF20F00100704704
:101C48000CF0004C4CEA50207F32C2BFD2F1FF03A7
:101C580040EAC250704740F400004FF00003013AD8
:101C680037E792F0000F00F0004C02BF400010F47C
:101C7800000F013AF9D040EA0C0093F0000F01F090
:101C8800004C02BF490011F4000F013BF9D041EAB2
:101C98000C0195E70CEAD15392EA0C0F08D14202E5
:101CA8007FF47DAF93EA0C0F7FF470AF084676E7B8
:101CB80093EA0C0F04D14B023FF44CAF08466EE791
:101CC80030F0004C18BF31F0004CCAD130F000425F
:101CD8007FF45CAF31F000437FF43CAF5FE700BFB7
:101CE8004FEA4002B2F1FE4F0FD34FF09E03B3EB21
:101CF80012620DD94FEA002343F0004310F0004F61
:101D080023FA02F018BF404270474FF000007047B6
:101D180012F1610F01D1420205D110F0004008BF55
:101D28006FF0004070474FF00000704742000ED23D
:101D3800B2F1FE4F0BD34FF09E03B3EB126209D4FE
:101D48004FEA002343F0004323FA02F070474FF0B4
:101D58000000704712F1610F01D1420202D14FF029
:101D6800FF3070474FF00000704700BF014B186804
:101D7800704700BF00000020142343430A49800035
:101D88005A5822F001025A5000225A5004315A502F
:101D980004315A5004315A500F23044A03FA00F010
:101DA8005168084350607047080002400000024034
:101DB80084B010B503AC84E80E00142358431A4BC2
:101DC800069AC1500433C2500A9A083BC250079C75
:101DD800049A043BC15822430B9C21F47C512243B2
:101DE8000A43C250059A9AB9C25842F04002C250FA
:101DF800089A8AB9C25842F08002C250099A7AB940
:101E0800C25822F01002BDE81040C25004B070471A
:101E1800C25822F04002EAE7C25822F08002ECE7FA
:101E2800C25842F01002EEE7100002401423584353
:101E3800024A835843F02003835070470800024049
:101E480014235843024A835823F0200383507047D1
:101E58000800024014235843024A835823F480435D
:101E6800835070470800024014235843024A83589D
:101E780043F001038350704708000240142358437D
:101E8800024A835823F00103835070470800024038
:101E980014235843014BC058704700BF0C00024040
:101EA8002DE9F04300264FF0010E4FF003080568B6
:101EB800C4680EFA06F71F420DD0770008FA07FC2F
:101EC80001FA07F925EA0C0524EA0C0402FA07F7D7
:101ED80049EA05053C430136102EEAD10560C46085
:101EE800BDE8F083F0B500240126032701294168E5
:101EF8000CBF194399434160816806FA04F51D42F5
:101F080007D0650007FA05FC21EA0C0102FA05F57D
:101F180029430134102CF0D18160F0BD81617047F4
:101F28008162704703690B4214BF0120002070478B
:101F3800F0B500234FF0010C4FF00F0E076A466A08
:101F48000CFA03F4144207D09D000EFA05F427EAB0
:101F5800040701FA05F52F430133082BF0D10023BC
:101F68004FF0010C4FF00F0E03F108040CFA04F4C3
:101F7800144207D09C000EFA04F526EA050601FA79
:101F880004F426430133082BEED107624662F0BD04
:101F9800F8B5054602200C46174600F03BF92549DE
:101FA800254AB0FBF1F1904294BF0B463F236E687F
:101FB800224A26F03F061E4394426E6012D8013131
:101FC8003E294FEA4404B0FBF4F48ABF3F23296258
:101FD8002B62042C38BF0424E869C4F30B040443BF
:101FE800EC61F8BD164A9442FBD84FF496725343FD
:101FF8004FF47A72B3FBF2F301332B6297B904EB17
:102008004404B0FBF4F4EB6923F48043EB61C4F3BC
:102018000B030BB944F00104EB6943F40043EB6193
:10202800E869DCE719214C43EB69B0FBF4F443F4AD
:102038008043EBE740420F00BF4DC103A08601007B
:10204800801A060010B504681A4324F002040C43F1
:102058000460826010BD036801290CBF43F48063EB
:1020680023F4806303607047036819B943F400637D
:102078000360704723F40063FAE702320CBF21F0D3
:10208800010141F0010101617047036843F0010358
:1020980003607047036843F4807303607047036804
:1020A80043F4007303607047016170470069C0B270
:1020B80070470029B4BF80694069084080B2003881
:1020C80018BF012070474369022916BF23EA01019E
:1020D80083694161704743680B43436070474368B5
:1020E80023EA010343607047024610B5CCB240684A
:1020F800536874B184050CD5CB0605D053690B42DF
:1021080014BF0120002003E0506810F48060F5D16E
:1021180010BD11F47F40FBD013F48070F7E7FFF790
:10212800D2BF0000034B40F0BF6040F40030D860DD
:10213800704700BF00ED00E030B5234CE36803F4BE
:10214800E063B3F5E06F32D0E36803F4E063B3F51E
:10215800C06F2FD0E36803F4E063B3F5A06F2CD011
:10216800E36803F4E063B3F5806F29D0E3680024E3
:1021780003F4E063B3F5407F20D104250F23C4F1B5
:102188000404C5F10405E34001FA05F513402B43A7
:102198000E4A1B011118DBB281F8003301234109F3
:1021A80000F01F0003FA00F042F8210030BD0424BB
:1021B8000025E3E703240125E0E702242546DDE7BF
:1021C80001240325DAE700BF00ED00E000E100E0AC
:1021D8000122830903F1804303F50433196800F0F1
:1021E8001F0002FA00F008431860704701218309B4
:1021F80003F1804303F504331A6800F01F0001FA65
:1022080000F022EA000018607047FFF7E1BFFFF70F
:10221800EDBF00004A4BF0B505461F4689B004AC37
:1022280003F11006224618685968083303C2B342FE
:102238001446F7D16B4638697168424A03C303C331
:102248005368C3F38103022B35D151685368C1F336
:1022580083411C0153684CBF11310231D80341BF7F
:10226800D36A394803F00F0301334CBFB0FBF3F3D3
:10227800364B59435368C3F3031320336B4413F8A5
:10228800104C536821FA04F4C3F3022320336B443F
:1022980013F8206C5368C3F3C22320336B4413F83C
:1022A800183C24FA03F0062D40D8DFE805F0430671
:1022B80009070C212A002449DCE7204609B0F0BDB3
:1022C80024FA06F0FAE7136BD90531D55368C3F33E
:1022D8008133022B06D0032B08D0012B14BF4008F2
:1022E8008008EBE70623B0FBF3F0E7E7C008E5E773
:1022F800136B48F2120013F0400F18BF4FF4004060
:10230800DCE7136B9B07D9D0136B03F00303012B96
:1023180010D0136B03F00303022B0DD0136B0A4884
:1023280003F00303032B18BF0020C7E70020C5E70D
:102338000748C3E70846C1E74FF40040BEE700BFBF
:10234800584C00080010024000127A0000093D00B5
:10235800809FD50008B50C4B98420DD003F5744307
:10236800984210D140F20E30FFF74FFF40F20E3086
:10237800BDE80840FFF74BBF40F21140FFF745FFAB
:1023880040F21140F4E708BD0044004038B5134B53
:10239800044698420D4617D003F57443984215D168
:1023A8000620FFF737FF22686B08120410D503EBED
:1023B8004003B3FBF5F1C1F3420321F00F01090417
:1023C800090C1943E16038BD0220EAE70020EAE77A
:1023D8000344B3FBF5F189B2F4E700BF00440040C1
:1023E800036843F0010303607047026822F00802A3
:1023F800026003680B4303607047026822F004021E
:10240800026003680B4303607047026822F0010210
:102418000260026822F40042026003680B43036012
:102428007047026822F001020260826822F40062AA
:10243800826083680B4383607047826822F04002A1
:10244800826083680B4383607047826822F0800251
:10245800826083680B438360704701F01F0301218A
:10246800026A9940114301627047012310B5C1F314
:102478008912145801F01F0103FA01F12143115088
:1024880010BDC1F3891310B51C588B0D1A580123C0
:10249800C1F3044003FA00F0104007D001F01F0117
:1024A80003FA01F1214214BF1846002010BD0000B4
:1024B800284B1A6842F001021A601A689007FCD586
:1024C8005968254A0A405A605A6822F0084222F49C
:1024D80074125A605A6822F440025A601A6822F04C
:1024E800867222F480321A60DA6A22F00F02DA6207
:1024F8001A6B22F4A17222F001021A635A6B22F0BD
:1025080001025A6300229A605A685A605A685A60EF
:102518005A685A605A6822F0036222F450225A60BC
:102528005A6842F0006242F480225A601A6842F007
:1025380080721A601A689101FCD55A6822F0030269
:102548005A605A6842F002025A605A681207FCD56B
:10255800704700BF001002400C00FF0808B500F0EB
:10256800E1FA01F0BFFF4FF4E1310D4802F09EF8A7
:1025780002F0AEF902F090F902F0B7F900F07EF837
:10258800084C012000F0ECFA00F0A4F800F0BCF8C8
:1025980000F004F900F06AF9236801332360F0E7DA
:1025A80000440040C00000207047000070B5054698
:1025B8000326314C01214FF09040FFF7AFFC4FF458
:1025C80080712046FFF7ACFC284600F0C9FA4FF4AA
:1025D80000712046FFF7A2FC01214FF09040FFF761
:1025E8009FFC284600F0BCFA4FF480712046FFF7A4
:1025F80095FC4FF400712046FFF792FC284600F046
:10260800AFFA013ED6D102261B4C01214FF0904073
:10261800FFF784FC4FF400712046FFF77FFC4FF46E
:1026280080712046FFF77AFC20212046FFF776FCD0
:1026380010212046FFF772FC284600F091FA01218C
:102648004FF09040FFF76CFC4FF400712046FFF705
:1026580067FC4FF480712046FFF762FC202120467A
:10266800FFF75EFC10212046FFF75AFC012E00D12F
:1026780070BD0126C9E700BF0004004808B50E2256
:102688000F49104802F078F840220F490D4802F02F
:10269800BBF86420FFF78AFF01F0EEF80B4B40B15E
:1026A800002201214FF090401A70BDE80840FFF762
:1026B80035BC01224FF4007105481A70F5E700BFD8
:1026C800E80000200044004010010020080100201C
:1026D800000400480A4B1B78012B01D101F000BA15
:1026E8006BB96422074B1B68B3FBF2F102FB113391
:1026F8002BB94FF09042536983F00103536170473F
:1027080008010020C000002038B510214FF090408B
:10271800FFF708FC1B4D4FF4804128701A48FFF75B
:1027280001FC1A4B1A4C1A782070A2B92A78012A8F
:1027380004D1202117481A70FFF7F0FB164B1A78BE
:10274800A2B92278012A1CD11A701021BDE838409C
:102758001048FFF7E3BB012AF0D12A78002AEDD10F
:1027680020210C481A70FFF7DBFBE7E7012A08D1A4
:10277800227832B91A701021BDE838400548FFF7B1
:10278800CFBB38BD5101002000080048500100208F
:10279800530100200004004852010020F8B5294DDB
:1027A800294A2B685343B3F1333F29D80320FFF755
:1027B8006FFB28BB4AF6CD31244B254AB3F91E607E
:1027C800B3F90270234B12781B78920042EA430255
:1027D800214B224C1B78668013437E4063817340F3
:1027E8004B40E08020810320A3812180A780FFF750
:1027F80045FB0E221A4B03209A641C65FFF734FB35
:10280800184B1A88511CB2F5167F1980164A14D332
:10281800012111704FF416721A8064222B68B3FBE1
:10282800F2F102FB11335BB94FF09042D2F8143445
:1028380083F48073C2F8143402E01378002BECD1CF
:10284800F8BD00BFC0000020CDCCCCCC7C0100205E
:10285800080100205201002050010020E80000205B
:1028680000000240540100205601002010B5244BFE
:102878001B78002B43D1234C0121E3894FF0904072
:10288800DA0729D5FFF74AFBE3894FF400719B0764
:102898001D4824D5FFF742FBE3894FF480715A079E
:1028A80019481FD5FFF73AFBE38920211B07164873
:1028B8001BD5FFF733FBE3891021DA06124817D539
:1028C800FFF72CFBE3894FF480611B070E4812D5F4
:1028D800BDE81040FFF722BBFFF722FBD4E7FFF764
:1028E8001FFBD9E7FFF71CFBDEE7FFF719FBE2E761
:1028F800FFF716FBE6E7BDE81040FFF711BB10BD78
:1029080056010020C4000020000400484AF6CD33D8
:10291800028810B59A4220D1848843886340C489CC
:102928006340C48863400489634044896340848960
:1029380063405A40038A92B293420ED100F11003C9
:1029480050F8042B984241F8042BF9D10388034A24
:102958000B8000231380024A137010BD540100201D
:1029680056010020F8B50420FFF792FA1A4DC0F17D
:1029780040042968A14214D019D2631A122B16D127
:10298800164B1944164B01F1100251F8040B9142F1
:1029980043F8040BF9D10A881A8012491048FFF746
:1029A800B5FF402C0ABF00232C602B60F8BDC1F195
:1029B80040063319122BF4D1094B084F32461846FA
:1029C8003944FDF745FC002CE7D02246394630440F
:1029D800FDF73EFCE1E700BF0C01002010010020DC
:1029E800D6000020C4000020704700002DE9F04107
:1029F8000124FF26184DA0402C70184DC0B22E702F
:102A0800174E184F30701848184E01701849194859
:102A18000B60194B4FF4E06132701C70FFF75BFBE1
:102A280044F62164DFF84C8039464046FFF741FB05
:102A380018B1013CA4B2002CF6D10E48FFF72AFBCE
:102A480044F6216332781AB1013B9BB2002BF9D1CD
:102A5800287840B2BDE8F081F6000020010100208E
:102A68000001002002000080F9000020F70000208B
:102A78000401002000540040F80000202DE9F04136
:102A88000024FF261C4D40002C701C4DC0B22E7037
:102A98001B4E30701B481C4E0170327001221B49BE
:102AA8001B480B601B4B4FF4E0611A70FFF713FBD8
:102AB8003378022B03D121461548FFF7D5FA44F69F
:102AC8002164154FDFF8488039464046FFF7F1FA90
:102AD80018B1013CA4B2002CF6D10D48FFF7DAFA80
:102AE80044F6216332781AB1013B9BB2002BF9D12D
:102AF800287840B2BDE8F081F600002001010020EE
:102B080000010020F9000020F7000020FC00002050
:102B180000540040F8000020020000801346012203
:102B2800FFF7ACBF4FF47A720B4B1B68B3FBF2F3A1
:102B3800013BB3F1807F0DD24FF0E022F0215361C9
:102B4800064B072083F8231000219161106183F858
:102B580023107047FEE700BF6800002000ED00E08A
:102B6800024B18601A68002AFCD1704758010020EF
:102B7800034B1A6812B11A68013A1A60704700BF0D
:102B880058010020024A136801331360704700BFE0
:102B98005C010020014B1B68036070475C0100204A
:102BA8000138052811D8DFE800F00306080A0C0EE2
:102BB8000648FFF7F9BC0648FBE70648F9E7064868
:102BC800F7E70648F5E70648F3E77047E04C0008E2
:102BD800E84C0008F04C0008F84C0008004D0008CC
:102BE800084D000803280CD8DFE800F002050709A3
:102BF8000448FFF7D9BC0448FBE70448F9E7044850
:102C0800F7E77047154D0008254D0008104D0008DE
:102C1800204D000813B5114C94F824302BB100282E
:102C280018BF02208DF8070008E0A37A9BB100289E
:102C3800F8D0637C7BB901238DF80730D4E9001004
:102C48000122497C00780DF10703FFF7CFFE10B988
:102C58009DF80730637402B010BD00BF78000020F3
:102C6800F7B51D4C0646A37A0D461BB94FF0FF3049
:102C780003B0F0BDD4E900100222097C007801AB52
:102C8800FFF7FCFE0028F1D1BDF80470FFBA15B1BA
:102C98002846FFF77FFF3846FEF77EFE6568044644
:102CA800B5F90800FEF778FE01462046FEF7BEFD9E
:102CB8000446E888FEF770FE01462046FEF774FFDA
:102CC8000649FEF7B5FD4FF08F41FEF7B9FEFFF755
:102CD80007F830600020CBE77800002000000C42A5
:102CE80013B5584CA37A1BB94FF0FF3002B010BD92
:102CF8000023D4E900108DF807300122497C0078C0
:102D08000DF10703FFF772FE0028EDD1D4E900109A
:102D18000122497900780DF10703FFF767FE0028C3
:102D2800E2D1D4E900100122097900780DF10703F6
:102D3800FFF75CFE0028D7D1D4E90030197994F860
:102D48002430002B42D00C238DF807300122007864
:102D58000DF10703FFF74AFE0028C5D13220FFF71F
:102D6800FFFED4E90010C0238DF80730A37A0122B2
:102D7800DB0744BFE0238DF80730097900780DF1AF
:102D88000703FFF733FE0028AED1D4E90010637CB7
:102D98000122002B18BF02238DF80730497C0078E8
:102DA8000DF10703FFF722FE00289DD10DF107035F
:102DB8008DF80700D4E90010012249790078FFF75F
:102DC80015FE003818BF012040428FE704238DF814
:102DD8000730012200780DF10703FFF707FE0028EE
:102DE80082D1A37C63BBA37A13F0010F0CBF4023ED
:102DF8006023D4E900108DF80730012209790078A2
:102E08000DF10703FFF7F2FD00287FF46DAF3220C4
:102E1800FFF7A6FED4E90010637C0122003B18BF2F
:102E280001238DF80730497C00780DF10703FFF77F
:102E3800DDFD00287FF458AFD4E90010024BBBE752
:102E48004023D6E7780000208800002013B51A4CEC
:102E5800A37A1BB94FF0FF3002B010BDB0F57A7FEE
:102E680025D006D8FA2809D0B0F5FA7FF2D1082380
:102E780005E0B0F5FA6FEDD1182300E000238DF8D6
:102E880007309DF80720237AB3EBD20F11D0D4E98D
:102E980000100122897900780DF10703FFF7A6FDDC
:102EA8000028D7D19DF80730DB082372D4E7102318
:102EB800E5E70020D0E700BF780000200C4B5A7AE5
:102EC800032A12D8DFE802F0020B0D0F022202706B
:102ED800DB7C13B103785B00037000207047042289
:102EE800F5E70822F3E71022F1E74FF0FF307047CB
:102EF8007800002013B5184CA37A1BB94FF0FF30A7
:102F080002B010BD082823D005D8022807D004280D
:102F1800F4D1082304E01028F0D1182300E000239E
:102F28008DF807309DF80720637AB3EBD20F11D0E4
:102F3800D4E900100122C97900780DF10703FFF7E1
:102F480055FD0028DAD19DF80730DB086372D7E712
:102F58001023E5E70020D3E77800002013B5194CCB
:102F6800A37A1BB94FF0FF3002B010BDBB2816D9A9
:102F780001238DF80730E27A9DF807309A421FD076
:102F8800D4E900100122897800780DF10703FFF7D2
:102F98002DFD0028E6D19DF80730E372E4E76128AB
:102FA80001D90223E5E7292801D90323E1E71328FA
:102FB80001D90423DDE709288CBF05230623D8E7B8
:102FC8000020D1E778000020F8B5114E96F824309B
:102FD800E3B9B47A9CB100F0FE052C40307D377C13
:102FE8003474641B18BF4FF0FF3428430AD0012003
:102FF800FFF710FE45B1FFF773FE28B137744FF0A5
:10300800FF3401E0FFF706FE2046F8BD0024FBE789
:10301800780000202DE9F04F654D1E4695F82430C4
:1030280007468946924685B023B14FF0FF3005B078
:10303800BDE8F08F3370AB7A002BF6D02B7C002BD9
:10304800F3D013F0400418BF0224980648BF023496
:10305800D90644BF0234E4B21A0748BF0634D5E99A
:1030680000104FF00202097B007801AB48BFE4B2C0
:10307800FFF704FD0028D8D1BDF804301FFA84F802
:103088005BBA1FFA83FBD84501D90020CFE76868EF
:103098004388BBEB530F11D929680122C97C0078FA
:1030A80001ABFFF7EBFC0028BFD19DF80430DB062D
:1030B80004D5FFF715FE6FF00100B8E75046FFF79B
:1030C80069FDD5E900102246497B007801ABFFF77E
:1030D800D5FC0028A9D1BBFBF4F30E9A013B137071
:1030E8003070002CD1D02A7C12F0080216D0BDF81E
:1030F8000430B8F1060F5BBAA9F80030BDF8063005
:103108005BBAA9F80230BDF808305BBAA9F80430F8
:10311800337843F008033370B7D006222B7C580667
:1031280015D502F110036B4413F80C1C531C9BB209
:1031380010336B4413F80C3C023243EA01233B8002
:10314800337892B243F04003904533709DD02B7C86
:10315800990615D502F110036B4413F80C1C531C87
:103168009BB210336B4413F80C3C023243EA012340
:103178007B80337892B243F020039045337084D03B
:103188002B7CDB0681D502F1100301326B4492B22D
:1031980013F80C1C02F110030DEB030212F80C3C9F
:1031A80043EA0123BB80337843F0100333706CE7A4
:1031B800780000202DE9F341234F064697F8243084
:1031C8008846154623B94FF0FF3002B0BDE8F081BC
:1031D800BB7A002BF7D0D7E900100222097B0078D0
:1031E80001ABFFF74BFC0028EDD1BDF8044062BAF3
:1031F80094B2A64201D92870E5E778684388B4EB11
:10320800530F11D939680122C97C007801ABFFF747
:1032180035FC0028D7D19DF80430DB0604D5FFF72C
:103228005FFD6FF00100D0E7D7E900104346497B06
:103238000078F2B2FFF722FC0028C4D1B4FBF6F400
:10324800013C2C70C1E700BF7800002037B5384C2E
:103258000546A37C834269D06368012218782368F5
:1032680019790DF107036DB3FFF708FC18B14FF09A
:10327800FF3003B030BD9DF80730D4E9001023F0CB
:1032880020038DF807300122097900780DF1070332
:10329800FFF7ACFB0028EAD10320FFF761FC02230B
:1032A8008DF8073094F8223013B182238DF8073057
:1032B80094F8233073B39DF8073043F030038DF84A
:1032C800073027E0FFF7DAFB0028D0D1D4E9001057
:1032D800A27A9DF80730D2074CBF43F0200303F0D1
:1032E800DF038DF807300122097900780DF1070313
:1032F800FFF77CFB0028BAD10320FFF731FC94F8D4
:10330800223094F82320002B18BF80238DF8073033
:10331800002AD2D1D4E900100122C97D00780DF12C
:103328000703FFF763FB0028A1D1A5740020A0E7DD
:103338007800002037B5174C054694F823308342AF
:1033480022D000280CBF00233023A27C8DF8073040
:103358001AB143F002038DF8073094F822302BB1EC
:103368009DF8073063F07F038DF80730D4E900102B
:103378000122C97D00780DF10703FFF737FB28B953
:1033880084F8235003B030BD0020FBE74FF0FF3036
:10339800F8E700BF78000020282837B5044603D98D
:1033A8004FF0FF3003B030BD264D90B9FFF7C2FF94
:1033B800D5E9001007238DF804408DF80530022266
:1033C800497D007801ABFFF711FB0028E8D128758B
:1033D800E8E70120FFF7AEFF2023012C8DF8043029
:1033E80020D1002305208DF80530FFF7B7FDD5E97A
:1033F80000109DF8053002229B0143F007038DF869
:103408000530497D007801ABFFF7F0FA0446002843
:10341800C6D10823AB72012328732B75FFF7D4FD9F
:103428002046BFE7052C01D80123DBE7142C95BF04
:10343800022303230A20142094BF8DF805308DF849
:103448000530D2E778000020F7B51E4E0546B37A5E
:103458001BB94FF0FF3003B0F0BD96F82440002CA4
:10346800F7D1337D4BB1431E272B03D8FFF794FFC9
:103478002046F0E72046FFF78FFFD6E90010B5F5A4
:103488007A7F28BF4FF47A75042D38BF04254FF48E
:103498007A77B7FBF5F5013D8DF807500122497899
:1034A80000780DF10703FFF7A1FA04460028D0D1F0
:1034B8009DF807000130B7FBF0F0F0814008FFF7F6
:1034C8004DFDD5E77800002010F0700337B50446AD
:1034D80013D001232B4D8DF80730D5E900100122B8
:1034E800497D00780DF10703FFF780FA48B1002302
:1034F8004FF0FF30AB7203B030BD0028EAD1402353
:10350800E8E79DF8073023F040032B73630656BFA6
:1035180004238DF807008DF80730A10658BF9DF8E1
:103528000730D5E900105CBF43F002038DF807307F
:10353800E20658BF9DF807304FF001025CBF43F028
:1035480001038DF80730230758BF9DF80730897DA0
:103558005CBF43F038038DF8073000780DF107039E
:10356800FFF744FA0028C2D114F0F70F01D0FFF793
:10357800E1FEAC72002432202C75FFF7F1FA2046E8
:10358800B9E700BF78000020802337B52A4C8DF8B2
:103598000030D4E900106B460122497D0078FFF71E
:1035A80025FA054620B14FF0FF34204603B030BD60
:1035B8006420FFF7D5FAD4E900108DF800506B4667
:1035C8000122497D0078FFF711FA0028EBD14FF668
:1035D800FF73E38123744FF0FF33FF22A3600123BD
:1035E800A082C4F81600C4F81A00C4F81E0060626D
:1035F80062824FF4FA6063842373FFF727FC002884
:10360800D1D10220FFF776FC0028CCD12A20FFF781
:10361800A5FC0028C7D13220FFF716FF0028C2D129
:10362800FFF7D2FC0028BED1FFF710FE04460028A1
:10363800B9D1FFF749FFB8E778000020F7B50D4684
:1036480016461AB94FF0FF3003B0F0BD124CA37AFA
:10365800002BF7D06768030A8DF80430C0B27B8965
:103668008DF8050008449842ECDC21680222C97EE6
:10367800387801ABFFF7BAF90028E3D1D4E9001094
:103688003346097E0078EAB2FFF7B0F9003818BF70
:1036980001204042D8E700BF78000020F7B50D466A
:1036A80016461AB94FF0FF3003B0F0BD124CA37A9A
:1036B800002BF7D06768030A8DF80430C0B27B8905
:1036C8008DF8050008449842ECDC21680222C97E86
:1036D800387801ABFFF78AF90028E3D1D4E9001064
:1036E8003346097E0078EAB2FFF7C8F9003818BFF8
:1036F80001204042D8E700BF780000202DE9F04FB4
:10370800254D89B095F8254081468A46174601938C
:1037180024B14FF0FF3009B0BDE8F08F0029F8D090
:103728004C4514D33B0A8DF80C308DF80D70D5E953
:1037380000100222497F007803ABFFF757F90028F1
:10374800E7D1012385F82530019BEB84E3E7A9EB5A
:10375800040BBBF1100FA8BF4FF0100B0AEB0408C5
:103768001FFA8BF6424631462046FFF767FF0028CE
:10377800CFD13146204604AAFFF790FF0028C8D1D0
:103788003246404604A9FCF72FFD10B93444A4B2D0
:10379800C6E76FF00100BEE77800002037B51D4D81
:1037A800044695F8243083421ED000B395F825309E
:1037B8006BB300240020FFF72DFA0020FFF746FD29
:1037C800E88CFFF741FE68688DF807400122232145
:1037D80000780DF10703FFF709F9012085F82400A7
:1037E800FFF718FAFFF77CFA002003B030BDFFF7A7
:1037F80011FA2B7C68688DF80730012223210078A4
:103808000DF10703FFF7F2F885F82440EAE74FF0D7
:10381800FF30EAE77800002090F90030002B0CDC3C
:103828000DD190F90130002B0BDC0CD190F902304E
:10383800002B0ADC0BD107207047002070470420BA
:103848007047012070470520704702207047062006
:10385800704710B50246FFF7DFFF0146D01CFFF79F
:10386800DBFF0446901DFFF7D7FF830143EAC4033B
:1038780043EA010080B210BD38B52148FEF794FE36
:10388800FFF782FE054630B11E48FEF78DFE4FF069
:10389800FF35284638BD7820FFF716FE7820FFF759
:1038A80093FB1420FFF7D0FD0323174C1748C4E9F6
:1038B80003556370A5706561FEF776FE00F0D8F9D0
:1038C800054608B11248E0E71248FFF7C2FF00F0CA
:1038D800D9F9114800F0FAFD104800F0FDFDF32079
:1038E800208300F031FC142000F06CFA0120FFF76F
:1038F80055FF01230A48A370FEF756FEC9E700BF2B
:10390800314D0008494D000860010020564D00085F
:10391800674D00086C000020A92B0008ED2B00085B
:10392800754D0008000000002DE9F04F6A4C85B085
:10393800E068FEF731F84FF04251FEF781F8824611
:103948002069FEF729F84FF04251FEF779F805464D
:103958006069FEF721F84FF04251FEF771F806460C
:10396800A069FEF719F84FF04251FEF769F83146A1
:1039780007463046FEF764F8834629462846FEF790
:103988005FF85946FDF754FF0146FDF751FF014620
:103998004FF07E50FDF74AFFFDF7C4FB804689468D
:1039A80050462946FEF74CF8394600903046FEF757
:1039B80047F8009B01461846FDF73AFF0146FDF718
:1039C80037FFFDF7AFFB42464B46FCF7E7FC804666
:1039D800894650463146FEF733F839460090284666
:1039E800FEF72EF8009B01461846FDF71FFF01461B
:1039F800FDF71EFFFDF796FBFCF7A0FCCDE90001E3
:103A080039463846FEF71CF85946FDF711FF0146BE
:103A1800FDF70EFF01464FF07E50FDF707FFFDF75B
:103A280081FB02460B4650463946CDE90223FEF794
:103A380007F8314607462846FEF702F80146384699
:103A4800FDF7F6FE0146FDF7F3FEFDF76BFBDDE93A
:103A58000223FCF7A3FC06460F4640464946FDF7FD
:103A680091FEFDF75FFB1AA3D3E90023FDF7B2FB34
:103A780000221A4BFDF7AEFBFDF75CFEA083DDE9E3
:103A88000001FDF77FFEFDF74DFB11A3D3E90023ED
:103A9800FDF7A0FB0022114BFDF79CFBFDF74AFE4A
:103AA8003946E0833046FDF76DFEFDF73BFB08A382
:103AB800D3E90023FDF78EFB0022084BFDF78AFBB4
:103AC800FDF738FE208405B0BDE8F08FAFF3008025
:103AD800F8C1631ADCA54C407C0100200000594065
:103AE80030B5544B8BB0D3E900130DF10902C97CF2
:103AF8001878FFF713F89DF809304F4C13F0030FAF
:103B080018BF012304A818BF2371FFF743F8049BCB
:103B180022699A423CBF03F5FA732361237934BFC3
:103B280001250025002B49D0A378002B46D00DF1A4
:103B38000B03019305AB0093404A03AB08A906A801
:103B480000F0ECFB9DF80B3003B92371BDF814307D
:103B580003F07003A3B13A4CBDF818302380BDF8C8
:103B68001A306380BDF81C30A3804DB1354D03A9D0
:103B78002846FFF775F864222B6853431B146384A7
:103B8800BDF81420110709D52D4BBDF82010D98098
:103B9800BDF822101981BDF824105981D2050BD522
:103BA800264A274B1168D960516819619168D26813
:103BB80059619A61FFF7B8FE0BB030BD2379002B2D
:103BC800FAD0002323710DF10B03009303AA0DF122
:103BD8000A0308A906A8FFF71DFA9DF80B300BB1D8
:103BE800012323719DF80A3013F0700F13D0144C81
:103BF800BDF818302380BDF81A306380BDF81C303A
:103C0800A38045B103A905A8FFF72AF86422059BFC
:103C180053431B1463849DF80A301B07CCD5084B0B
:103C2800BDF82020DA80BDF822201A81BDF82420B2
:103C38005A81C1E77800002060010020A00100201F
:103C48007C010020B00100201FB5084A01AB1068B4
:103C58005168127A03C309211A704FF4976001AAB8
:103C6800FFF7ECFC05B05DF804FB00BFD04D000881
:103C7800C8234FF4806240F6F6300149FFF73EBD95
:103C8800014E000810B54A4B86B01A889B78ADF8EB
:103C980008208DF80A30474B00F003011A889B78FA
:103CA800ADF80C208DF80E30434B04461A889B78EB
:103CB800ADF810208DF81230404B1A889B78ADF87B
:103CC80014208DF8163001F118030DEB030111F8DB
:103CD800103CC0F3C1028DF8003002F118030DEB5F
:103CE800030212F8103C11F80C1C8DF80130C0F3D7
:103CF800811318336B4413F8100C12F80C2C13F8BA
:103D08000C3C8DF802008DF804108DF80520032175
:103D18006A4640F226408DF80630FFF78FFC18B14E
:103D28004FF0FF3006B010BD032140F22A4001AA2F
:103D3800FFF784FC0028F3D1049B6107ADF800303D
:103D48004FEA13438DF80230059B4FF00301ADF89D
:103D580004304FEA13438DF8063041BF37238DF8FE
:103D6800003027238DF80430A20641BF57238DF871
:103D7800013047238DF80530E30542BF77238DF8DE
:103D8800023067236A464FF4886048BF8DF80630D2
:103D9800FFF754FC0028C3D1032140F2314001AAA7
:103DA800FFF74CFC0028BBD1054B1C81BAE700BFCC
:103DB800DA4D0008DE4D0008E24D0008E64D000827
:103DC800B401002010B50446144A86B01068516842
:103DD80003AB03C39068C82C186003D94FF0FF30B9
:103DE80006B010BD00238DF80430C823B3FBF4F3EC
:103DF8000221013B40F2162001AA8DF80530FFF799
:103E08001DFC0028EAD10C2140F6C12003AAFFF7C7
:103E180015FC0028E2D1024B9C81E1E7EA4D00083D
:103E2800B401002073B504460846610703D14FF07A
:103E3800FF3002B070BDB0F5C86FF8D8FDF7A8FD27
:103E48004449FDF7B1FE06460DF10300FFF736F8C9
:103E58009DF80330082B60D00DD8022B17D0042B07
:103E6800E5D14FF08C413046FDF7EAFDFDF75EFFE6
:103E7800394985B214E0102BD9D14FF08A41304628
:103E8800FDF7DEFDFDF752FF344985B208E04FF03B
:103E98008D413046FDF7D4FDFDF748FF304985B226
:103EA8003046FDF7CDFDFDF741FF2B0A80B28DF8B6
:103EB8000430E2074FEA10238DF805508DF80630DC
:103EC8008DF8070033D4A30710D502214FF4EC7006
:103ED80001AAFFF7B3FB0028A9D102214FF494707F
:103EE8000DF10602FFF7AAFB0028A0D114F0040088
:103EF8009FD002214FF4EE7001AAFFF79FFB002824
:103F080095D102214FF496700DF10602FFF796FB4A
:103F1800003818BF012040428BE74FF08B413046F4
:103F2800FDF78EFDFDF702FF0E4985B2B8E70221C5
:103F38004FF4EA7001AAFFF781FB00287FF477AFFE
:103F480002214FF492700DF10602FFF777FB00286B
:103F5800B9D06CE7000048430000C0450000C044E9
:103F6800000040460000404510F0010318BF302310
:103F780007B582078DF8073048BF9DF807304FF026
:103F8800010144BF43F00C038DF80730430748BFD5
:103F98009DF807300DF1070248BF43F003034FF4C3
:103FA800A47048BF8DF80730FFF748FB03B05DF8F1
:103FB80004FB042807B528BF0420012838BF0120C6
:103FC80001388DF8070001210DF1070240F24F106A
:103FD800FFF734FB03B05DF804FB052307B5B0FB1E
:103FE800F3F00221030A8DF8050001AA4FF4EF70DF
:103FF8008DF80430FFF722FB03B05DF804FB0523BE
:1040080007B5B0FBF3F00221030A8DF8050001AAF9
:104018004FF4ED708DF80430FFF710FB03B05DF836
:1040280004FB4FF47A7307B590FBF3F041430B168A
:104038008DF804300B148DF805308DF807100B122D
:1040480001AA04214FF4AE708DF80630FFF7F6FA96
:1040580003B05DF804FB052307B5B0FBF3F00221BC
:10406800030A8DF8050001AA4FF4AD708DF80430ED
:10407800FFF7E4FA03B05DF804FB052307B5B0FBCE
:10408800F3F00221030A8DF8050001AA4FF4AC7081
:104098008DF80430FFF7D2FA03B05DF804FB000096
:1040A8001FB520B105B05DF804EBFFF7CDBD084A98
:1040B80001AB10685168127A03C309211A704FF4D2
:1040C800976001AAFFF7BAFA05B05DF804FB00BFD4
:1040D800F74D000807B5B0B1C0238DF80430C223EE
:1040E8008DF80530C4238DF80630C6238DF80730C7
:1040F800042101AA40F69820FFF7A0FAFEF7F0FD88
:1041080003B05DF804FB4FF08B330193F0E707B57C
:10411800B0B120238DF8043028238DF805303023E2
:104128008DF8063038238DF80730042101AA40F6AF
:104138009E20FFF783FAFEF7D3FD03B05DF804FB7A
:104148004FF0A3330193F0E72DE9FF4102238DF8E7
:104158000430CA238DF80530E3238DF8063009238F
:104168000446042101AA68208DF80730FFF766FA93
:10417800A32314F040088DF804301FBFC0238DF826
:104188000530C8238DF8063012BFC2238DF80530DC
:104198008DF8063014F4C0768DF807301DBFC4239F
:1041A8008DF80830CC23A32319BF8DF80930C62316
:1041B8008DF808308DF809308DF80A30A3230A21CC
:1041C80001AA40F6A7208DF80B308DF80C308DF839
:1041D8000D30FFF733FA14F003070CBFD823202360
:1041E800012140F6B62001AA8DF80430FFF726FA1F
:1041F80014F0200072D0FFF727FD9EB1E20570D5BC
:10420800B2238DF804308B238DF80530B6238DF852
:1042180006309B23042140F6A22001AA8DF807301E
:10422800FFF70CFAE30767D5F82301AA01214FF439
:104238000B608DF80430FFF701FAFA210720FFF729
:10424800F1FD0720FFF790FE0120FFF7B2FE642082
:10425800FFF7C3FE4FF4FA70FFF7D1FEC8212D48CF
:10426800FFF7DFFE2820FFF7F6FE0A20FFF705FF1D
:1042780014F0020F0CBFD823D923012101AA40F260
:104288003D708DF80430FFF7D9F914F0040018BF19
:104298000120FFF71FFF14F0100018BF01201E4D6A
:1042A800FFF735FF44F008036B81FEF719FDB8F1FD
:1042B800000F2BD185F80E8016B1AB7B0633AB739C
:1042C80014F0140F1EBFAB7B1033AB7317B1AB7B6D
:1042D8000433AB73002004B0BDE8F081FFF7E0FEC3
:1042E8008BE7B0238DF8043080238DF80530B42394
:1042F8008DF8063090238DE7D823012101AA4FF4C9
:104308000B608DF80430FFF799F9B1E70623AB731A
:10431800D2E700BF09E3CA02B40100202DE9F04F3B
:104328009946002389B0129EDFF89CA1074688466B
:1043380093466946139A9AF80E003380FEF73AFFBF
:10434800054650BBBAF80A3013F0140F00F0B980D4
:10435800019900980CBA4FEA244C0CFB0CFC00BAEB
:10436800CBF80000001400FB00CC0299039A09BAAC
:10437800CBF80810091401FB01C112BACBF80C20C4
:10438800121402FB021202F17142B2F1007FCBF863
:10439800044005D9FEF7A4FC35804FF0FF358CE0CA
:1043A800328842F4807232801022580634D502F1E5
:1043B8002001694411F8200C511CC9B2203169440C
:1043C80011F8201C41EA0021A8F80010911CC9B27C
:1043D8002031694411F8200CD11CC9B2203169443C
:1043E80011F8201C41EA0021A8F80210111DC9B2D9
:1043F8002031694411F8200C511DC9B2203169449B
:1044080011F8201C063241EA0021A8F8041031886E
:10441800D2B241F00801318013F4C07F31D002F1EB
:104428002001694411F8200C511CC9B2203169449B
:1044380011F8201C41EA00213980911CC9B22031B1
:10444800694411F8200CD11CC9B22031694411F813
:10445800201C41EA00217980111DC9B2203169442C
:1044680011F8200C511DC9B22031694411F8201CE3
:10447800063241EA0021B9803188D2B241F0700198
:104488003180990716D00DEB02046378E678DA07D5
:1044980008D5DAF800302BB106F007010131C6F370
:1044A800C200984763781B0704D5DAF804300BB1CB
:1044B800B00998474846FEF76DFB284609B0BDE8A5
:1044C800F08F024671E700BFB4010020014B18606D
:1044D80000207047B4010020014B5860002070474D
:1044E800B401002038B540F21150FDF771FE40F2DA
:1044F8001250FDF76DFE01236A4C194600224FF059
:104508009040FDF7CDFC20464FF4007300220121B6
:10451800FDF7C6FC20464FF4807300220121FDF709
:10452800BFFC2046202300220121FDF7B9FC2046CC
:10453800102300220121FDF7B3FC012303220021EF
:104548004FF09040FDF7CEFC20464FF40073032255
:104558000021FDF7C7FC20464FF480730322002199
:10456800FDF7C0FC2046202303220021FDF7BAFCFA
:104578001023032220460021FDF7B4FC01214FF04F
:104588009040FDF7CDFC20464FF40071FDF7C8FCC4
:1045980020464FF48071FDF7C3FC20462021FDF72B
:1045A800BFFC10212046FDF7BBFC40F21150FDF77F
:1045B8000FFE40F21350FDF70BFE002210231146A8
:1045C8004FF09040FDF76CFC0022374D4FF48043CC
:1045D80011462846FDF764FC40F21250FDF7F8FD3D
:1045E80040F21570FDF7F4FD204640220121FDF749
:1045F8009FFC204680220121FDF79AFC204640239B
:1046080001220221FDF74CFC204640230322012110
:10461800FDF768FC2046802301220221FDF740FCBB
:104628008023032201212046FDF75CFC40F2115053
:10463800FDF7CEFD40F21250FDF7CAFD40F21350CF
:10464800FDF7C6FD0022284611464FF40043FDF74A
:1046580027FC0223002201214FF09040FDF720FCA7
:1046680020464FF4806300220121FDF719FC022344
:10467800032200214FF09040FDF734FC4FF4806393
:10468800204603220021FDF72DFC02214FF0904027
:10469800FDF746FC2046BDE838404FF48061FDF741
:1046A8003FBC00BF0004004800080048F8B50446B5
:1046B8000E462D4D40F21150FDF78AFD631B5D42F9
:1046C8005D412A4B33F81500FDF782FD284B012187
:1046D80053F825704FF090403A46FDF729FC254BDA
:1046E800012153F825504FF090402A46FDF720FC51
:1046F8003B46012202214FF09040FDF7D1FB3B469B
:10470800012200214FF09040FDF7ECFB2B460122DF
:1047180002214FF09040FDF7C3FB2B4601220021F8
:104728004FF09040FDF7DEFB2046FDF713FE3146C3
:104738002046FDF72BFE20460821FDF756FE2046B1
:104748000421FDF75AFE20460021FDF75EFE0021F8
:104758002046FDF766FE2046FDF742FE2046BDE8EE
:10476800F8400421FDF781BE00440040F8590008D4
:104778001C5A0008085A00082DE9F04107461F4C4A
:1047880090B04FF4A06088461546FDF721FD3B1B0D
:104798005C425C411A4B1E5D3046FDF7EDFA012282
:1047A80000231849CDE90832CDE90B3351F824101C
:1047B8004FF440536C460E950D92CDF828800AAD03
:1047C80007910F930FCD0FC495E8030084E8030009
:1047D80007AB0ECB3046FDF7EBFA3046FDF730FB62
:1047E8003046FDF737FB38468021FDF72EFE304670
:1047F80010B0BDE8F041FDF737BB00BF00440040F2
:10480800185A0008105A00082DE9F04107461F4CB5
:1048180090B04FF4A06088461546FDF7D9FC3B1BC5
:104828005C425C411A4B1E5D3046FDF7A5FA194AF9
:10483800002352F82420CDE90B33079201220D936F
:10484800CDE908326C464FF440530E95CDF82880D8
:104858000AAD0F930FCD0FC495E8030084E8030059
:1048680007AB0ECB3046FDF7A3FA3046FDF7DEFA6C
:104878003046FDF7EFFA38464021FDF7DEFD3046B9
:1048880010B0BDE8F041FDF7EFBA00BF00440040AA
:10489800045A0008FC59000810B50B4C4FF480422C
:1048A80020460A49FDF774FB0022204611462423BE
:1048B800FDF7C8FB2046FDF7E8FB2046BDE81040A1
:1048C8000121FDF7C8BB00BF00540040801A060054
:1048D80008B5012200211B20FDF72EFCBDE8084089
:1048E800012200211C20FDF727BC08B54FF4C06049
:1048F800FDF718FC002217201146FDF71DFCBDE846
:104908000840002220201146FDF716BC38B5644B3C
:104918001A78012AD1B253D16248FDF7E5FB40B1BC
:104928006FF00102604B19785E48BDE83840FDF72A
:10493800A4BB02215B48FDF7D7FB28B1BDE838408E
:1049480002215848FDF7EBBB80215648FDF7CCFB08
:1049580000282AD0554C23785BB2002B09DD544B34
:1049680050481978FDF7A0FB2378013B5BB2237010
:104978001BE0504C2378CBB14F4A4A481368591C66
:1049880011601978FDF790FB2378013BDBB22370A7
:10499800237803F0FF020BB9484B1A704FF4FA73EF
:1049A80000BF013B9BB2002BFAD138BD3D48FDF753
:1049B80076FBBDE838404FF4E0613A48FDF78FBB1D
:1049C8001B78002BF1D1394C0121237835481B067F
:1049D80017D4FDF789FB0028A2D102213148FDF741
:1049E80083FB0028AAD180212E48FDF77DFB0028F3
:1049F800DBD023785BB2002BB1DC2A48FDF74AFBF9
:104A0800B2E7FDF771FB18B1274B012219788BE744
:104A180002212448FDF768FB58B1264B1A78012A71
:104A280002D01B78022B89D100211E48FDF713FB09
:104A380084E740211B48FDF757FB0028B5D01D4CE3
:104A48002378002BB1D02378032B0AD1154D0421EC
:104A58002846FDF749FB0028F9D000211148FDF749
:104A6800FAFA174B0F481D686A1C1A60FDF71EFBFF
:104A780028702378013BDBB22370237803F0FF040E
:104A8800002B92D10748FDF70AFB0C4B0121054882
:104A98001C70FDF7E0FA01210248FDF7E5FA88E706
:104AA800F60000200054004000010020F80000201B
:104AB800F9000020F7000020040100200101002077
:104AC800FC00002008B54FF480612948FDF70CFB75
:104AD80020B14FF480612648FDF721FB4FF40041D7
:104AE8002348FDF701FB20B14FF400412048FDF7B2
:104AF80016FB4FF480411E48FDF7F6FA20B14FF43B
:104B080080411B48FDF70BFB4FF400611848FDF787
:104B1800EBFA20B14FF400611548FDF700FB4FF4A4
:104B280000711348FDF7E0FA20B14FF40071104806
:104B3800FDF7F5FA4FF480710D48FDF7D5FA20B16D
:104B48004FF480710A48FDF7EAFA4FF4805108489B
:104B5800FDF7CAFA20B14FF480510548FDF7DFFA96
:104B6800BDE808404FF4E0610148FDF7B8BA00BF5E
:104B7800005400407047FEE7FEE7FEE7FEE7704797
:104B88007047704708B5FDF7FDFFBDE80840FDF721
:104B9800EFBF000008B507490748FDF772FC40B1B0
:104BA80040F204710448FDF758FCBDE80840FDF7E1
:104BB8001BBF08BD040004070038014008B50749B9
:104BC8000748FDF75EFC40B140F204710448FDF768
:104BD80044FCBDE80840FDF7C5BE08BD0400040755
:104BE80000440040FFF792BEFFF76CBF002103E0CE
:104BF8000A4B5B584350043109480A4B42189A4201
:104C0800F6D3094A02E0002342F8043B074B9A42D4
:104C1800F9D3FDF74DFCFDF7A1FC7047305A0008A9
:104C280000000020A4000020A4000020C4010020EF
:104C3800FEE70000F8B500BFF8BC08BC9E46704708
:0C4C4800F8B500BFF8BC08BC9E467047E1
:104C58000000000000000000010203040607080924
:104C68000000000001020304182D4454FB21E9BF91
:104C7800D221337F7CD90240D221337F7CD902C034
:104C88000000000000000080182D4454FB2109405A
:104C9800182D4454FB2109C04FBB610567ACDD3FAB
:104CA800182D4454FB21E93F9BF681D20B73EF3F4B
:104CB800182D4454FB21F93FE2652F227F2B7A3CC3
:104CC800075C143326A6813CBDCBF07A8807703C7C
:104CD800075C143326A6913C54617020582B2000A1
:104CE80054617020582D200054617020592B2000E9
:104CF80054617020592D2000546170205A2B2000D7
:104D0800546170205A2D20005265762E20506F7203
:104D180074726169740D0A005265762E204C616EBA
:104D28006473636170650D0A00436F6E6669677529
:104D380072696E67204D5055363035302E2E2E2034
:104D4800004641494C20284D5055290D0A0020772E
:104D5800726974696E6720444D502E2E2E200020F3
:104D68004641494C2028444D50290D0A00204F4BFC
:104D78000D0A00006800000476005401F7FD0001E8
:104D880075191A0C6A231B1C00001F207274433B00
:104D98004138393A006B6C376F06246D6E7000002D
:104DA8008300000000080000000100183200050020
:104DB800000020410000D242295C0F3E9A99993E9A
:104DC8003333733F295C0F3EB8AAB38DB4980D35C1
:104DD8005D004CCD6C000CC92C003656760026467A
:104DE8006600FEF2ABC4AAF1DFDFBBAFDFDF00B8BD
:104DF800AAAAAAB088C3C5C70000007000000000B6
:104E080024000000020003000000650054FFEF00CA
:104E180000FA80000B12820001030C30C30E8C8C48
:104E2800E914D5400213710F8E3883F8833000F8E7
:104E380083258EF8833000F883FFFFFFFF0FFEA95C
:104E4800D6240004001A8279A10000003CFFFF006C
:104E5800000010000038836FA2003E0330400000BD
:104E68000002CAE3093E80000020000000000000A4
:104E7800004000000060000000000C0000000C185A
:104E88006E000006920A16C0DFFFFF0256FD8CD3A3
:104E980077FFE1C496E0C5BEAA00000000FFFF0B43
:104EA8002B00001657000003594000000000001DA9
:104EB800FA00026C1D000000003FFFDFEB003EB36C
:104EC800B6000D227800002F3C00000000001942B7
:104ED800B5000039A20000B365D90E9FC91DCF4C9B
:104EE8003430000000500000003BB67AE80064004F
:104EF8000000C8000000000000100000001000FAC8
:104F0800921000225E000D229F0001000000320076
:104F180000FF46000063D400001000000004D60023
:104F28000004CC000004CC00000000107200000057
:104F3800400000000000000000000600020005001C
:104F480007000000000064000000000000000000EE
:104F580005000500640020000000000000000000BB
:104F680000000040000000030000000032F8980034
:104F780000FF650000830F0000FF9BFC000000009D
:104F88000000000000000000000000000000000019
:104F98000000000000000000000000000000000009
:104FA80000000000000000100040000000000000A9
:104FB800060000B26A000200000001FB83006800DE
:104FC8000000D9FC007CF1FF8300000000006500B0
:104FD80000006403E80064002800000025000000C9
:104FE8000016A000000000100000001000002F00B4
:104FF80000000001F40000100000280000FFFF4539
:1050080081FFFFFA72000000000000000000440069
:10501800050005BAC6004778A2000000010000009C
:105028000000000600000000140000254D002F704D
:105038006D000005AE000C02D0000000000000006A
:10504800000000000000000000001B00000000003D
:1050580000000000000000000000640000000800DC
:105068000000000000000000000000000000000038
:105078000000000000000000000000000000000028
:105088000000000000000000000000000000000018
:105098000000000000000000000000000000000008
:1050A80000000000000000000000000000000000F8
:1050B800000000000000000000001B0000000000CD
:1050C8000000000000000E000E00000AC7000400E7
:1050D8000000000032FFFFFF9C00000B2B000000C7
:1050E800020000000100000064FFE500000000006D
:1050F80000000000000000000000000001000000A7
:105108000000010000000000000001800000018094
:105118000000018000002426D300000000000000E9
:1051280000000600100096003C000000000000008F
:105138000000000000000000000C0A4E68CDCF7788
:105148000950166759C619CE8200000000000000F9
:105158000000000000000000000000000000000047
:105168000017D784000300000000000000000000C2
:1051780000C7938F9D1E1B1C190000000000000033
:105188000000000000000000000000000000000017
:105198000002031885000040000000000300000022
:1051A80003000000000000000040000000000000B4
:1051B80000000000000000000000000000000000E7
:1051C80000000000000000000000000000000000D7
:1051D80000000000000000000000000000677DDF04
:1051E8007E72902E554CF6E6880000000000000004
:1051F800000000000000000000D8DCB4B8B0D8B946
:10520800ABF3F8FAB3B7BB8E9EAEF132F51BF1B42F
:10521800B8B08097F1A9DFDFDFAADFDFDFF2AAC528
:10522800CDC7A90CC92C97F1A989264666B28999D8
:10523800A92D557DB0B08AA896365676F1BAA3B492
:10524800B280C0B8A89711B28398BAA3F0240844D2
:10525800106418B2B9B49883F1A329557DBAB5B1D1
:10526800A38393F0002850F5B2B6AA839328547C00
:10527800F1B9A3829361BAA2DADEDFDB819AB9AE13
:10528800F5606870F1DABAA2DFD9BAA2FAB9A382D6
:1052980092DB31BAA2D9BAA2F8DF85A4D0C1BBADDE
:1052A80083C2C5C7B8A2DFDFDFBAA0DFDFDFD8D887
:1052B800F1B8AAB38DB4980D355DB2B6BAAF8C9675
:1052C800198F9FA70E161EB49AB8AA872C547CBAB9
:1052D800A4B08AB691325676B28494A4C808CDD8C0
:1052E800B8B4B0F19982A82D557D98A80E161EA2C3
:1052F8002C547C92A4F02C5078F184A898C4CDFC4E
:10530800D80DDBA8FC2DF3D9BAA6F8DABAA6DED8F0
:10531800BAB2B68696A6D0F3C841DAA6C8F8D8B00D
:10532800B4B882A892F52C548898F135D9F418D8D5
:10533800F1A2D0F8F9A884D9C7DFF8F883C5DADF75
:1053480069DF83C1D8F40114F1A8824EA884F3114F
:10535800D182F5D992289788F109F41C1CD884A821
:10536800F3C0F9D1D99782F129F40DD8F3F9F9D11D
:10537800D982F4C203D8DEDF1AD8F1A2FAF9A884D8
:1053880098D9C7DFF8F8F883C7DADF69DFF883C38D
:10539800D8F40114F198A8822EA884F311D182F5CB
:1053A800D992509788F109F41CD884A8F3C0F8F969
:1053B800D1D99782F149F40DD8F3F9F9D1D982F40A
:1053C800C403D8DEDFD8F1AD8898CCA809F9D98212
:1053D80092A8F57CF1883ACF944A6E98DB6931DA65
:1053E800ADF2DEF9D88795A8F221D1DAA5F9F4173C
:1053F800D9F1AE8ED0C0C3AE82C684C3A88595C885
:10540800A588F2C0F1F4010EF18E9EA8C63E56F5AD
:1054180054F18872F40115F19845856EF58E9E0455
:1054280088F142985A8E9E068869F4011CF1981EEC
:105438001108D0F504F11E970202983625DBF9D938
:1054480085A5F3C1DA85A5F3DFD88595A8F309DA30
:10545800A5FAD88292A8F578F1881A849F268898A8
:1054680021DAF41DF3D8879F39D1AFD9DFDFFBF9F3
:10547800F40CF3D8FAD0F8DAF9F9D0DFD9F9D8F47E
:105488000BD8F3879F39D1AFD9DFDFF41DF3D8FAF2
:10549800FCA869F9F9AFD0DADEFAD9F88F9FA8F13C
:1054A800CCF398DB45D9AFDFD0F8D8F18F9FA8CAE5
:1054B800F38809DAAF8FCBF8D8F2AD978D0CD9A560
:1054C800DFF9BAA6F3FAF412F2D8950DD1D9BAA633
:1054D800F3FADAA5F2C1BAA6F3DFD8F1BAB2B68602
:1054E80096A6D0CAF349DAA6CBF8D8B0B4B8D8ADE6
:1054F80084F2C0DFF18FCBC3A8B2B68696C8C1CB01
:10550800C3F3B0B48898A821DB718D9D718595216E
:10551800D9ADF2FAD88597A828D9F408D8F28D29F8
:10552800DAF405D9F285A4C2F2D8A88D9401D1D9AC
:10553800F411F2D88721D8F40AD8F28498A8C801BF
:10554800D1D9F411D8F3A4C8BBAFD0F2DEF8F8F87B
:10555800F8F8F8F8F8D8F1B8F6B5B9B08A95A3DE36
:105568003CA3D9F8D85CA3D9F8D87CA3D9F8D8F843
:10557800F9D1A5D9DFDAFAD8B18530F7D9DED8F86C
:1055880030ADDADED8F2B48C99A32D557DA083DF37
:10559800DFDFB591A0F629D9FBD8A0FC29D9FAD824
:1055A800A0D051D9F8D8FC51D9F9D879D9FBD8A0CD
:1055B800D0FC79D9FAD8A1F9F9F9F9F9A0DADFDF3D
:1055C800DFD8A1F8F8F8F8F8ACDEF8ADDE8393ACD4
:1055D8002C547CF1A8DFDFDFF69D2CDAA0DFD9FAA6
:1055E800DB2DF8D8A850DAA0D0DED9D0F8F8F8DB4F
:1055F80055F8D8A878DAA0D0DFD9D0FAF8F8F8F8B2
:10560800DB7DF8D89CA88CF530DB38D9D0DEDFA05C
:10561800D0DEDFD8A848DB58D9DFD0DEA0DFD0DE67
:10562800D8A868DB70D9DFDFA0DFDFD8F1A88890C1
:105638002C547C98A8D05C38D1DAF2AE8CDFF9D83B
:10564800B087A8C1C1B188A8C6F9F9DA36D8A8F9CF
:10565800DA36D8A8F9DA36D8A8F9DA36D8A8F9DACD
:1056680036D8F78D9DADF818DAF2AEDFD8F7ADFA77
:1056780030D9A4DEF9D8F2AEDEFAF983A7D9C3C5CA
:10568800C7F1889BA77AADF7DEDFA4F8849408A752
:1056980097F300AEF29819A488C6A39488F632DF6F
:1056A800F28393DB09D9F2AADFD8D8AEF8F9D1DAB8
:1056B800F3A4DEA7F1889B7AD8F38494AE19F9DABB
:1056C800AAF1DFD8A881C0C3C5C7A39283F628ADC5
:1056D800DED9F8D8A350ADD9F8D8A378ADD9F8D881
:1056E800F8F9D1A1DADEC3C5C7D8A18194F818F2B8
:1056F800B089ACC3C5C7F1D8B8B4B09786A8319BF8
:10570800069907AB9728889BF00C201440B0B4B8D2
:10571800F0A88A9A285078B79BA8295179247059FB
:10572800446938644831F1BBAB88002C547CF0B331
:105738008BB8A804285078F1B088B49726A859984F
:10574800BBABB38B02264666B0B8F08A9CA8295139
:10575800798B2951798A2470598B2058718A446928
:10576800388B3940688A6448318B30496088F1AC9D
:10577800002C547CF08CA804285078F1889726A82F
:105788005998AC8C02264666F0899CA82951792440
:105798007059446938644831A98809205970AB1197
:1057A800384069A8193148608CA83C415C207C00CD
:1057B800F187981986A86E767EA999882D557DD887
:1057C800B1B5B9A3DFDFDFAED0DFAAD0DEF2ABF828
:1057D800F9D9B087C4AAF1DFDFBBAFDFDFB9D8B131
:1057E800F1A3978E60DFB084F2C8F8F9D9DED893B8
:1057F80085F14AB183A308B5839A0810B79F10D8DA
:10580800F1B0BAAEB08AC2B2B68E9EF1FBD9F41D21
:10581800D8F9D90CF1D8F8F8AD61D9AEFBD8F40CA9
:10582800F1D8F8F8AD19D9AEFBDFD8F416F1D8F8ED
:10583800AD8D61D9F4F4ACF59C9C8DDF2BBAB6AE76
:10584800FAF8F40BD8F1AED0F8AD51DAAEFAF8F1B7
:10585800D8B9B1B6A3839C08B9B1839AB5AAC0FDDB
:105868003083B79F10B58B93F20202D1ABDADED842
:10587800F1B080BAABC0C3B284C1C3D8B1B9F38B9D
:10588800A391B609B4D9ABDEB0879CB9A3DDF1B357
:105898008B8B8B8B8BB087A3A3A3A3B28BB69BF206
:1058A800A3A3A3A3A3A3A3A3A3A3F1B087B59AA378
:1058B800F39BA3A3DCBAACDFB9A3A3A3A3A3A3A3BD
:1058C800A3A3A3A3A3A3A3A3A3D8D8D8BBB3B7F177
:1058D800AAF9DAFFD9809AAA28B48098A720B7979E
:1058E80087A86688F07951F1902C870CA781976278
:1058F80093F071716085940129517990A5F1284C34
:105908006C870C95188578A38390284C6C886CD884
:10591800F3A28200F210A8921980A2F2D926D8F137
:1059280088A84DD948D896A83980D93CD89580A858
:1059380039A68698D92CDA87A72CD8A8899519A9C9
:1059480080D938D8A88939A980DA3CD8A82EA839AE
:1059580090D90CD8A8953198D90CD8A809D9FFD8CE
:1059680001DAFFD89539A9DA26FFD890A80D8999C8
:10597800A810809821DA2ED88999A83180DA2ED8F3
:10598800A886963180DA2ED8A8873180DA2ED8A852
:105998008292F34180F1D92ED8A882F31980F1D9E7
:1059A8002ED882ACF3C0A28022F1A62EA72EA9225F
:1059B80098A829DAACDEFFD8A2F22AF1A92E8292A1
:1059C800A8F23180A696F1D900AC8C9C0C30ACDEE4
:1059D800D0DEFFD88C9CACD010ACDE8092A2F24C0A
:1059E80082A8F1CAF235F19688A6D900D8F1FF004D
:1059F8000E06110724380140244400400204000028
:105A08000004000008000000283801402844004035
:105A18000103000000020000040000000000000074
:045A2800D1010008A0
:045A2C00A9010008C4
:105A30000400002000000000000000000000000042
:105A40000000000000000000000000000000000056
:105A50000000000000000000000000000000000046
:105A60000000000000000000000000000000000036
:105A70000000000000000000000000000000000026
:105A80000000000000000000000000000000000016
:105A900000000000FF00000000A24A040100000016
:105AA0000100000001000000884D00087C4D000846
:105AB00000000000000000000000000000000000E6
:105AC00000000000000000000000000000000000D6
:045AD000A84D0008D5
