:020000040800F2
:1000000000100020713F0008F93E0008FB3E000888
:10001000FD3E0008FF3E0008013F00080000000010
:10002000000000000000000000000000033F000886
:10003000053F000800000000073F0008093F0008D6
:10004000B53F0008B53F0008B53F0008B53F0008C0
:1000500000000000B53F0008B53F0008B53F0008AC
:10006000B53F0008B53F0008B53F0008B53F0008A0
:10007000B53F0008B53F0008B53F0008B53F000890
:10008000B53F0008B53F000800000000B53F00087C
:10009000B53F0008B53F0008B53F0008693F0008BC
:1000A000B53F0008B53F0008B53F0008193F0008FC
:1000B000413F000800000000B53F000800000000BC
:1000C0006D3F000800000000B53F0008B53F000884
:1000D000B53F0008B53F0008B53F0008000000002C
:1000E0000000000000000000B53F0008B53F000818
:1000F000B53F0008B53F0008B53F0008B53F000810
:10010000B53F00080000000000000000B53F0008F7
:1001100000000000000000000000000000000000DF
:1001200000000000000000000000000000000000CF
:1001300000000000000000000000000000000000BF
:1001400000000000000000000000000000000000AF
:100150000000000000000000B53F0008B53F0008A7
:08016000B53F0008B53F00089F
:100168000348044B834202D0034B03B1184770473E
:10017800980000209800002000000000054806496B
:100188000B1AD90F01EBA301491002D0034B03B19D
:1001980018477047980000209800002000000000D1
:1001A80010B5064C237843B9FFF7DAFF044B13B1B7
:1001B8000448AFF300800123237010BD980000208D
:1001C80000000000B83F000808B5044B1BB1044903
:1001D8000448AFF30080BDE80840CFE70000000006
:1001E8009C000020B83F0008844641EA000313F051
:1001F800030349D1403A23D30B6803604B6843603B
:100208008B688360CB68C3600B6903614B6943618A
:100218008B698361CB69C3610B6A03624B6A436272
:100228008B6A8362CB6AC3620B6B03634B6B43635A
:100238008B6B8363CB6BC36340304031403ADBD276
:1002480030320BD30B6803604B6843608B68836064
:10025800CB68C36010301031103AF3D20C3205D39A
:1002680051F8043B40F8043B043AF9D2043208D070
:10027800D2071CBF11F8013B00F8013B01D30B88E2
:1002880003806046704700BF082A13D38B07B1D09C
:1002980010F00303AED0C3F10403D21ADB071CBF6E
:1002A80011F8013B00F8013BA4D331F8023B20F8D8
:1002B800023B9FE7043AD9D3013A11F8013B00F811
:1002C800013BF9D20B7803704B7843708B788370BD
:1002D80060467047F8B504460D4600F02DF8124BFD
:1002E800064693F900300F4601330FD022462B46BD
:1002F8002046294601F0D4F940B92046294600F0A5
:100308006FFD0022094B01F0C1F910B9304639469A
:10031800F8BD01F0D7FC2122034605481A60BDE864
:10032800F84000F061BD00BF640000200000F03F0D
:100338000441000800F03CBA2DE9F04FC64F21F007
:100348000048B84504460D4687B033DD034608F13A
:10035800404808F5801858EA03030ED002460B46B9
:1003680000F04CFD0B46024601F02AF804460B4605
:100378002046194607B0BDE8F08F9BA3D3E90023B8
:1003880000F0F4FE9AA3D3E9002326462F4604463C
:100398000D463046394600F0E9FE02460B46204637
:1003A800294600F02DFD04460B462046194607B0A5
:1003B800BDE8F08FA94B0E4698450FDCB8F1795F80
:1003C80080F254818CA3D3E9002300F019FD0022A8
:1003D800A34B01F05BF9002840F002812046294632
:1003E80000F0FEFC02460B4600209D4900F006FD89
:1003F80000229C4B00F0BAFE81A3D3E900230446F7
:100408000D4600F0B3FE80A3D3E9002300F0F8FC0A
:1004180022462B4600F0AAFE7DA3D3E9002300F074
:10042800EDFC22462B4600F0A1FE7BA3D3E9002376
:1004380000F0E6FC22462B4600F098FE78A3D3E9AC
:10044800002300F0DBFC22462B4600F08FFE76A34B
:10045800D3E9002300F0D4FC22462B4600F086FEA8
:1004680073A3D3E90023CDE902012046294600F011
:100478007DFE71A3D3E9002300F0C0FC22462B4681
:1004880000F074FE6EA3D3E9002300F0B9FC224605
:100498002B4600F06BFE6CA3D3E9002300F0AEFC02
:1004A80022462B4600F062FE6D4B002200F0A8FCAD
:1004B800CDE904012046294600F042FA6A4B8246FB
:1004C80098458B466BDC0B460022CDE9002302469B
:1004D80000F096FCDDE9042380468946DDE9020147
:1004E80000F06EFF02460B464046494600F03EFECD
:1004F80080468946DDE9000102460B4600F036FEDB
:1005080002460B462046294600F078FC04460D4674
:1005180050465946DDE900AB52465B4600F070FC98
:1005280002460B462046294600F04AFF02460B4683
:1005380000F066FC02460B462DA1D1E9000100F04F
:100548005DFC02460B464046494600F057FC5246C1
:1005580004460D465B465046594600F051FC02469B
:100568000B463BA1D1E9000100F048FC02460B46CE
:100578002046294600F042FC0B46024634A1D1E948
:10058800000100F03BFC04460B46002E3FF7F0AE9E
:1005980003F100432046194607B0BDE8F08FDDE9B6
:1005A8000423DDE9020100F00BFF52465B4600F030
:1005B800DDFD52465B4600F023FC02460B4600F088
:1005C8001FFC0BA3D3E9002300F018FC0B460246DE
:1005D80005A1D1E9000100F011FC04460B46D4E75F
:1005E8002B46C5E6AFF30080182D4454FB21F93F94
:1005F800075C143326A6913C9C7500883CE4377E42
:1006080009F7FD0DE13D023F88B20175E0EF493F72
:100618003B8F68B52882A43F5544880E55C1C93F11
:100628007D6FEB0312D6D43F555555555555C53FEB
:1006380082922EB1C5B8B33F59018D1B6C06E63FB7
:10064800C88A599CE52A00404B2D8A1C273A03404A
:10065800182D4454FB21E93FFFFFEF3FFFFFDF3F29
:100668000000F03F0000E03F3233EF3F02460B4608
:1006780000F07CFD38A3D3E900238046894600F0CA
:1006880075FD37A3D3E9002300F0BAFB42464B4679
:1006980000F06CFD34A3D3E9002300F0AFFB424621
:1006A8004B4600F063FD32A3D3E9002300F0A8FB1A
:1006B80042464B4600F05AFD2FA3D3E9002300F031
:1006C8009DFB42464B4600F051FD2DA3D3E9002384
:1006D80000F096FB42464B4600F048FD2AA3D3E9BA
:1006E800002382468B464046494600F03FFD28A33A
:1006F800D3E9002300F082FB42464B4600F036FD6A
:1007080025A3D3E9002300F07BFB42464B4600F0CB
:100718002DFD23A3D3E9002300F070FB42464B468E
:1007280000F024FD0022204B00F06AFB02460B4635
:100738005046594600F044FE22462B4600F016FD6E
:1007480022462B4600F05CFB04460B462046194621
:1007580007B0BDE8F08F00BF09F7FD0DE13D023F8E
:1007680088B20175E0EF493F3B8F68B52882A43F06
:100778005544880E55C1C93F7D6FEB0312D6D43F4F
:10078800555555555555C53F82922EB1C5B8B33FFD
:1007980059018D1B6C06E63FC88A599CE52A004022
:1007A8004B2D8A1C273A03400000F03F0000000050
:1007B8009C462DE9F84F53425F4C13432CF00049F7
:1007C80049EAD373A342964607460E463DD84542AA
:1007D800054321F0004A4AEAD575A54203468B46EF
:1007E80033D80CF1404505F5801515433DD04FEA47
:1007F800AC7505F002055AEA030345EAD1752CD019
:1008080059EA020335D0A14546D0A24531D0AAEB1A
:100818000909B9F1747F4FEA295339DABCF1000F9D
:1008280046DA3C3344DA00200021012D58D0022D4D
:1008380049D085B134A3D3E9002300F0DFFA34A30B
:10084800D3E9002300F0DAFA05E03A46704661463B
:10085800334600F0D5FABDE8F88F022D10D0032DED
:10086800F9D12DA1D1E90001F5E7BDE8F84F00F075
:100878002FB9BBF1000F07DB29A1D1E90001EAE795
:1008880023A1D1E90001E6E727A1D1E90001E2E7C8
:1008980023A1D1E90001C8E7CA4505F1FF3523D0F6
:1008A800022D29D8254B03EBC505D5E90601D2E76A
:1008B800724663463846314600F082FD00F090FAF1
:1008C80000F006F9B1E710A3D3E9002300F096FA87
:1008D80002460B460EA1D1E9000100F08FFABAE7F3
:1008E80001F100431946B6E7022D08D8134B03EB74
:1008F800C505D5E90001AEE700200021ABE70CA152
:10090800D1E90001A7E700BF075C143326A6A13C84
:10091800182D4454FB210940182D4454FB2109C0CB
:10092800182D4454FB21F93F182D4454FB21F9BFDD
:10093800182D4454FB21E93F0000F07FE83F0008F0
:100948002DE9F843604E054636EA01020C4600F0F0
:100958009E8000290B46844654DD091562D0C3F3F6
:100968001303C807A1F2FF3743F4801304D45B00D4
:1009780003EBDC734FEA4C0C00264FEADC7202EB07
:1009880043034FF0160E4FF4001234467F104FEA1F
:100998004C0CA118994202DC5B1A8C1816445B00B7
:1009A800BEF1010E03EBDC734FEA52024FEA4C0C26
:1009B800EFD1754620204FF000420AE043D04FEABD
:1009C800DC71013801EB43034FEA4C0C4FEA520249
:1009D80042D0A34202EB0E01F0DD002901EB020E2A
:1009E8000ADBA0461B1B614588BF03F1FF33444661
:1009F800ACEB010C1544E2E7BEF1000FF1DB04F1AA
:100A08000108EFE721F00042024336D000294CD11B
:100A18004FEADC22134615394FEA4C5C002AF7D01E
:100A2800D6024CD400205B00DD02044600F1010030
:100A3800F9D51A4663460CFA00FCC0F12000C34001
:100A4800091B13438BE76145B9D8002901EB020E56
:100A5800D2DB98460023CAE753EA0C0311D1680891
:100A6800731003F17F5303F50013F20748BF40F0FA
:100A7800004003EB075905464C4628462146BDE889
:100A8800F883691C16BF681C01364008E8E702466F
:100A98000B4600F06BFB2A46234600F0B1F90546E9
:100AA8000C4628462146BDE8F883024600F0A6F920
:100AB80002460B4600F084FC05460C46DDE763461B
:100AC80020204FF0FF34BAE70000F07F000000005C
:100AD8002DE9F84FB64F21F00046BE4204460D46B8
:100AE8008A461CDDB34B9E420DDC0AD0B24BB34A9A
:100AF800B34CBAF1000FD8BF134620461946BDE8DB
:100B0800F88F0028F2D022462B462046294600F0CE
:100B180077F904460B4620461946BDE8F88FA94BDD
:100B28009E4200F3AC80A3F1DE739E4240F39980AD
:100B38004FF0FF3B22462B462046294600F016FB85
:100B480002460B468046894600F010FB80A3D3E995
:100B5800002306460F4600F009FB7FA3D3E90023D4
:100B680000F04EF932463B4600F000FB7CA3D3E987
:100B7800002300F045F932463B4600F0F7FA7AA325
:100B8800D3E9002300F03CF932463B4600F0EEFA88
:100B980077A3D3E9002300F033F932463B4600F04F
:100BA800E5FA75A3D3E9002300F02AF942464B463B
:100BB80000F0DCFA72A3D3E9002380468946304668
:100BC800394600F0D3FA70A3D3E9002300F016F9F0
:100BD80032463B4600F0CAFA6DA3D3E9002300F081
:100BE8000DF932463B4600F0C1FA6BA3D3E9002366
:100BF80000F004F932463B4600F0B8FA68A3D3E99E
:100C0800002300F0FBF832463B4600F0AFFABBF198
:100C1800FF3F02460B46404649464FD06A4E00F019
:100C2800EFF806EBCB0B22462B4600F09FFADBE9E8
:100C3800082300F0E3F822462B4600F0DFF80B46C5
:100C48000246DBE9000100F0D9F8BAF1000F0446CA
:100C58000B46BFF652AF01F1004320461946BDE8E6
:100C6800F88F51A3D3E9002300F0CAF80022574BAC
:100C780000F00CFD00283FF45BAF2B463DE700F089
:100C8800AFF8534B04469E420D4629DCA3F550238A
:100C98009E4250DC02460B4600F0B2F800224B4B55
:100CA80000F0ACF802460B462046294614461D467D
:100CB8004FF0000B00224FF0804326E000F0A0F830
:100CC80022462B4600F052FA02460B462046294699
:100CD80000F094F804460B4620461946BDE8F88F04
:100CE8003C4B9E421CDA00223B4B00F087F8024640
:100CF8000B462046294614461D460022364B4FF027
:100D0800020B00F033FA0022304B00F079F802466B
:100D18000B462046294600F053FB04460D4609E7DA
:100D280002460B4600202D4900F04AFB4FF0030B0A
:100D380004460D46FEE60022244B00F05FF802460A
:100D48000B46204629464FF0010B14461D46DAE7AC
:100D580011DA22E33AAD903FEB0D76244B7BA93FA5
:100D6800513DD0A0660DB13F6E204CC5CD45B73F73
:100D7800FF8300922449C23F0D5555555555D53F1F
:100D88002F6C6A2C44B4A2BF9AFDDE522DDEAD3F13
:100D98006D9A74AFF2B0B33F711623FEC671BC3FB3
:100DA800C4EB98999999C93F9C7500883CE4377EB3
:100DB800FFFF0F440000F07FFB21F93FFB21F9BF43
:100DC800182D4454FFFFDB3F184000080000F03F97
:100DD800FFFFF23F008003400000F83F0000F0BF33
:100DE80021F00041704700BF00200149704700BF53
:100DF8000000F87F81F0004102E000BF83F000436B
:100E080030B54FEA41044FEA430594EA050F08BF9D
:100E180090EA020F1FBF54EA000C55EA020C7FEA61
:100E2800645C7FEA655C00F0E2804FEA5454D4EBDE
:100E38005555B8BF6D420CDD2C4480EA020281EAA8
:100E4800030382EA000083EA010180EA020281EAE0
:100E58000303362D88BF30BD11F0004F4FEA013132
:100E68004FF4801C4CEA113102D0404261EB410141
:100E780013F0004F4FEA03334CEA133302D05242C7
:100E880063EB430394EA050F00F0A780A4F1010483
:100E9800D5F1200E0DDB02FA0EFC22FA05F28018BD
:100EA80041F1000103FA0EF2801843FA05F35941A3
:100EB8000EE0A5F120050EF1200E012A03FA0EFC22
:100EC80028BF4CF0020C43FA05F3C01851EBE3714C
:100ED80001F0004507D54FF0000EDCF1000C7EEB69
:100EE80000006EEB0101B1F5801F1BD3B1F5001FA7
:100EF8000CD349085FEA30004FEA3C0C04F10104C6
:100F08004FEA445212F5800F80F09A80BCF1004FEE
:100F180008BF5FEA500C50F1000041EB045141EA70
:100F2800050130BD5FEA4C0C404141EB0101013C39
:100F380028BFB1F5801FE9D291F0000F04BF014628
:100F48000020B1FA81F308BF2033A3F10B03B3F1FA
:100F580020020CDA0C3208DD02F1140CC2F10C028A
:100F680001FA0CF021FA02F10CE002F11402D8BFE8
:100F7800C2F1200C01FA02F120FA0CFCDCBF41EAB4
:100F88000C019040E41AA2BF01EB0451294330BD83
:100F98006FEA04041F3C1CDA0C340EDC04F1140460
:100FA800C4F1200220FA04F001FA02F340EA030037
:100FB80021FA04F345EA030130BDC4F10C04C4F17D
:100FC800200220FA02F001FA04F340EA030029465D
:100FD80030BD21FA04F0294630BD94F0000F83F4A7
:100FE800801306BF81F480110134013D4EE77FEA8A
:100FF800645C18BF7FEA655C29D094EA050F08BFD6
:1010080090EA020F05D054EA000C04BF19461046B6
:1010180030BD91EA030F1EBF0021002030BD5FEAFA
:10102800545C05D14000494128BF41F0004130BD22
:1010380014F580043CBF01F5801130BD01F0004576
:1010480045F0FE4141F470014FF0000030BD7FEAE9
:10105800645C1ABF194610467FEA655C1CBF0B46E4
:10106800024650EA013406BF52EA033591EA030FFB
:1010780041F4002130BD00BF90F0000F04BF0021F3
:10108800704730B54FF4806404F132044FF0000526
:101098004FF0000150E700BF90F0000F04BF00219F
:1010A800704730B54FF4806404F1320410F0004505
:1010B80048BF40424FF000013EE700BF42004FEA00
:1010C800E2014FEA31014FEA02701FBF12F07F437D
:1010D80093F07F4F81F06051704732F07F4208BF34
:1010E800704793F07F4F04BF41F40021704730B53B
:1010F8004FF4607401F0004521F000411CE700BF87
:1011080050EA010208BF704730B54FF000050AE009
:1011180050EA010208BF704730B511F0004502D50A
:10112800404261EB41014FF4806404F132045FEA0C
:10113800915C3FF4D8AE4FF003025FEADC0C18BFB5
:1011480003325FEADC0C18BF033202EBDC02C2F1A7
:10115800200300FA03FC20FA02F001FA03FE40EA39
:101168000E0021FA02F11444BDE600BF70B54FF03D
:10117800FF0C4CF4E06C1CEA11541DBF1CEA13551B
:1011880094EA0C0F95EA0C0F00F0DEF82C4481EA83
:10119800030621EA4C5123EA4C5350EA013518BFA3
:1011A80052EA033541F4801143F4801338D0A0FB90
:1011B80002CE4FF00005E1FB02E506F00042E0FB3D
:1011C80003E54FF00006E1FB03569CF0000F18BF43
:1011D8004EF0010EA4F1FF04B6F5007F64F54074EB
:1011E80004D25FEA4E0E6D4146EB060642EAC6217E
:1011F80041EA55514FEAC52040EA5E504FEACE2EEB
:10120800B4F1FD0C88BFBCF5E06F1ED8BEF1004FED
:1012180008BF5FEA500E50F1000041EB045170BD69
:1012280006F0004646EA010140EA020081EA0301AD
:10123800B4EB5C04C2BFD4EB0C0541EA045170BDA9
:1012480041F480114FF0000E013C00F3AB8014F123
:10125800360FDEBF002001F0004170BDC4F100046C
:10126800203C35DA0C341BDC04F11404C4F12005ED
:1012780000FA05F320FA04F001FA05F240EA020048
:1012880001F0004221F0004110EBD37021FA04F67E
:1012980042EB06015EEA430E08BF20EAD37070BD38
:1012A800C4F10C04C4F1200500FA04F320FA05F097
:1012B80001FA04F240EA020001F0004110EBD37099
:1012C80041F100015EEA430E08BF20EAD37070BD09
:1012D800C4F1200500FA05F24EEA020E20FA04F3E2
:1012E80001FA05F243EA020321FA04F001F0004191
:1012F80021FA04F220EA020000EBD3705EEA430E02
:1013080008BF20EAD37070BD94F0000F0FD101F030
:101318000046400041EB010111F4801F08BF013C69
:10132800F7D041EA060195F0000F18BF704703F0A7
:101338000046520043EB030313F4801F08BF013D2E
:10134800F7D043EA0603704794EA0C0F0CEA1355EA
:1013580018BF95EA0C0F0CD050EA410618BF52EAA4
:101368004306D1D181EA030101F000414FF00000AA
:1013780070BD50EA410606BF1046194652EA4306B8
:1013880019D094EA0C0F02D150EA013613D195EA2C
:101398000C0F05D152EA03361CBF104619460AD174
:1013A80081EA030101F0004141F0FE4141F470017E
:1013B8004FF0000070BD41F0FE4141F4780170BD6E
:1013C80070B54FF0FF0C4CF4E06C1CEA11541DBFD3
:1013D8001CEA135594EA0C0F95EA0C0F00F0A7F8D5
:1013E800A4EB050481EA030E52EA03354FEA013102
:1013F80000F088804FEA03334FF0805545EA131315
:1014080043EA12634FEA022245EA111545EA1065DC
:101418004FEA00260EF000419D4208BF964244F173
:10142800FD0404F5407402D25B084FEA3202B61A92
:1014380065EB03055B084FEA32024FF480104FF466
:10144800002CB6EB020E75EB030E22BFB61A7546DA
:1014580040EA0C005B084FEA3202B6EB020E75EB6D
:10146800030E22BFB61A754640EA5C005B084FEAD5
:101478003202B6EB020E75EB030E22BFB61A7546A2
:1014880040EA9C005B084FEA3202B6EB020E75EBAD
:10149800030E22BFB61A754640EADC0055EA060E6E
:1014A80018D04FEA051545EA16754FEA06164FEAB1
:1014B800C30343EA52734FEAC2025FEA1C1CC0D15D
:1014C80011F4801F0BD141EA00014FF000004FF0EA
:1014D800004CB6E711F4801F04BF01430020B4F1AB
:1014E800FD0C88BFBCF5E06F3FF6AFAEB5EB030C63
:1014F80004BFB6EB020C5FEA500C50F1000041EB60
:10150800045170BD0EF0004E4EEA113114EB5C042C
:10151800C2BFD4EB0C0541EA045170BD41F48011FF
:101528004FF0000E013C90E645EA060E8DE60CEA07
:10153800135594EA0C0F08BF95EA0C0F3FF43BAF24
:1015480094EA0C0F0AD150EA01347FF434AF95EADB
:101558000C0F7FF425AF104619462CE795EA0C0FBF
:1015680006D152EA03353FF4FDAE1046194622E78C
:1015780050EA410618BF52EA43067FF4C5AE50EA66
:1015880041047FF40DAF52EA43057FF4EBAE12E756
:101598004FF0FF3C06E000BF4FF0010C02E000BF37
:1015A8004FF0010C4DF804CD4FEA410C7FEA6C5C1A
:1015B8004FEA430C18BF7FEA6C5C1BD001B050EABD
:1015C800410C0CBF52EA430C91EA030F02BF90EAA8
:1015D800020F0020704710F1000F91EA030F58BF67
:1015E800994208BF90422CBFD8176FEAE37040F0C9
:1015F800010070474FEA410C7FEA6C5C02D150EA67
:10160800013C07D14FEA430C7FEA6C5CD6D152EA21
:10161800033CD3D05DF8040B704700BF84461046E6
:1016280062468C461946634600E000BF01B5FFF7E5
:10163800B7FF002848BF10F1000F01BD4DF808EDB5
:10164800FFF7F4FF0CBF012000205DF808FB00BF86
:101658004DF808EDFFF7EAFF34BF012000205DF8E0
:1016680008FB00BF4DF808EDFFF7E0FF94BF01202D
:1016780000205DF808FB00BF4DF808EDFFF7CEFF2E
:1016880094BF012000205DF808FB00BF4DF808ED6D
:10169800FFF7C4FF34BF012000205DF808FB00BF3E
:1016A8004FEA410C7FEA6C5C02D150EA013C0AD156
:1016B8004FEA430C7FEA6C5C02D152EA033C02D148
:1016C8004FF0000070474FF0010070474FEA4102A9
:1016D80012F5001215D211D56FF47873B3EB62527C
:1016E80012D94FEAC12343F0004343EA505311F0A3
:1016F800004F23FA02F018BF404270474FF0000035
:10170800704750EA013005D111F0004008BF6FF072
:10171800004070474FF00000704700BF4FEA410299
:10172800B2F1E04324BFB3F5001CDCF1FE5C0DD937
:1017380001F0004C4FEAC0024CEA5070B2F1004F81
:1017480040EB830008BF20F00100704711F0804F84
:1017580021D113F13872BCBF01F00040704741F449
:1017680080114FEA5252C2F11802C2F1200C10FA4D
:101778000CF320FA02F018BF40F001004FEAC12331
:101788004FEAD32303FA0CFC40EA0C0023FA02F3D5
:101798004FEA4303CCE77FEA625307D150EA0133AB
:1017A8001EBF4FF0FE4040F44000704701F000407B
:1017B80040F0FE4040F40000704700BF80F0004059
:1017C80002E000BF81F0004142001FBF5FEA410311
:1017D80092EA030F7FEA226C7FEA236C6AD04FEA11
:1017E8001262D2EB1363C1BFD21841404840414056
:1017F800B8BF5B42192B88BF704710F0004F40F408
:10180800000020F07F4018BF404211F0004F41F423
:10181800000121F07F4118BF494292EA030F3FD0EF
:10182800A2F1010241FA03FC10EB0C00C3F1200302
:1018380001FA03F100F0004302D5494260EB400091
:10184800B0F5000F13D3B0F1807F06D340084FEAFC
:10185800310102F10102FE2A51D2B1F1004F40EBF1
:10186800C25008BF20F0010040EA03007047490059
:1018780040EB0000013A28BFB0F5000FEDD2B0FAF6
:1018880080FCACF1080CB2EB0C0200FA0CF0AABF19
:1018980000EBC25052421843BCBFD04018437047B7
:1018A80092F0000F81F4000106BF80F400000132BD
:1018B800013BB5E74FEA41037FEA226C18BF7FEA94
:1018C800236C21D092EA030F04D092F0000F08BFD6
:1018D8000846704790EA010F1CBF0020704712F0BD
:1018E8007F4F04D1400028BF40F00040704712F1FC
:1018F80000723CBF00F50000704700F0004343F061
:10190800FE4040F4000070477FEA226216BF084696
:101918007FEA23630146420206BF5FEA412390EA59
:10192800010F40F4800070474FF0000304E000BF4F
:1019380010F0004348BF40425FEA000C08BF704700
:1019480043F0964301464FF000001CE050EA0102C4
:1019580008BF70474FF000030AE000BF50EA0102D9
:1019680008BF704711F0004302D5404261EB4101C6
:101978005FEA010C02BF84460146002043F0B643EB
:1019880008BFA3F18053A3F50003BCFA8CF2083A10
:10199800A3EBC25310DB01FA02FC634400FA02FC19
:1019A800C2F12002BCF1004F20FA02F243EB020020
:1019B80008BF20F00100704702F1200201FA02FC82
:1019C800C2F1200250EA4C0021FA02F243EB020075
:1019D80008BF20EADC7070474FF0FF0C1CEAD052B9
:1019E8001EBF1CEAD15392EA0C0F93EA0C0F6FD07A
:1019F8001A4480EA010C400218BF5FEA41211ED058
:101A08004FF0006343EA501043EA5111A0FB013143
:101A18000CF00040B1F5000F3EBF490041EAD37118
:101A28005B0040EA010062F17F02FD2A1DD8B3F194
:101A3800004F40EBC25008BF20F00100704790F003
:101A4800000F0CF0004C08BF49024CEA502040EA55
:101A580051207F3AC2BFD2F1FF0340EAC25070471B
:101A680040F400004FF00003013A5DDC12F1190F59
:101A7800DCBF00F000407047C2F10002410021FACB
:101A880002F1C2F1200200FA02FC5FEA310040F1E3
:101A9800000053EA4C0308BF20EADC70704792F05C
:101AA800000F00F0004C02BF400010F4000F013A94
:101AB800F9D040EA0C0093F0000F01F0004C02BF8F
:101AC800490011F4000F013BF9D041EA0C018FE7FE
:101AD8000CEAD15392EA0C0F18BF93EA0C0F0AD004
:101AE80030F0004C18BF31F0004CD8D180EA01002A
:101AF80000F00040704790F0000F17BF90F0004FC3
:101B0800084691F0000F91F0004F14D092EA0C0FA4
:101B180001D142020FD193EA0C0F03D14B0218BF37
:101B2800084608D180EA010000F0004040F0FE407D
:101B380040F40000704740F0FE4040F44000704719
:101B48004FF0FF0C1CEAD0521EBF1CEAD15392EA98
:101B58000C0F93EA0C0F69D0A2EB030280EA010C88
:101B680049024FEA402037D04FF0805343EA111121
:101B780043EA10130CF000408B4238BF5B0042F17F
:101B88007D024FF4000C8B4224BF5B1A40EA0C0024
:101B9800B3EB510F24BFA3EB510340EA5C00B3EB56
:101BA800910F24BFA3EB910340EA9C00B3EBD10F44
:101BB80024BFA3EBD10340EADC001B0118BF5FEA96
:101BC8001C1CE0D1FD2A3FF650AF8B4240EBC250BF
:101BD80008BF20F0010070470CF0004C4CEA502080
:101BE8007F32C2BFD2F1FF0340EAC250704740F4CF
:101BF80000004FF00003013A37E792F0000F00F0C1
:101C0800004C02BF400010F4000F013AF9D040EA3E
:101C18000C0093F0000F01F0004C02BF490011F4D2
:101C2800000F013BF9D041EA0C0195E70CEAD153CA
:101C380092EA0C0F08D142027FF47DAF93EA0C0FB1
:101C48007FF470AF084676E793EA0C0F04D14B0295
:101C58003FF44CAF08466EE730F0004C18BF31F047
:101C6800004CCAD130F000427FF45CAF31F0004341
:101C78007FF43CAF5FE700BF4FEA4002B2F1FE4F8E
:101C88000FD34FF09E03B3EB12620DD94FEA002336
:101C980043F0004310F0004F23FA02F018BF40420F
:101CA80070474FF00000704712F1610F01D14202F6
:101CB80005D110F0004008BF6FF0004070474FF0AA
:101CC80000007047014B1868704700BF00000020F3
:101CD800142343430A4980005A5822F001025A50FB
:101CE80000225A5004315A5004315A5004315A5083
:101CF8000F23044A03FA00F0516808435060704704
:101D0800080002400000024084B010B503AC84E82B
:101D18000E00142358431A4B069AC1500433C2507C
:101D28000A9A083BC250079C049A043BC1582243B4
:101D38000B9C21F47C5122430A43C250059A9AB95C
:101D4800C25842F04002C250089A8AB9C25842F0BA
:101D58008002C250099A7AB9C25822F01002BDE82E
:101D68001040C25004B07047C25822F04002EAE75F
:101D7800C25822F08002ECE7C25842F01002EEE7A7
:101D88001000024014235843024A835843F02003AA
:101D9800835070470800024014235843024A83586E
:101DA80023F020038350704708000240142358434F
:101DB800024A835823F48043835070470800024046
:101DC80014235843024A835843F001038350704751
:101DD8000800024014235843024A835823F00103A1
:101DE800835070470800024014235843014BC058E1
:101DF800704700BF0C0002402DE9F04300264FF069
:101E0800010E4FF003080568C4680EFA06F71F4272
:101E18000DD0770008FA07FC01FA07F925EA0C0546
:101E280024EA0C0402FA07F749EA05053C4301369F
:101E3800102EEAD10560C460BDE8F083F0B5002437
:101E480001260327012941680CBF194399434160C2
:101E5800816806FA04F51D4207D0650007FA05FCFB
:101E680021EA0C0102FA05F529430134102CF0D1BE
:101E78008160F0BD8161704781627047F0B50023D1
:101E88004FF0010C4FF00F0E076A466A0CFA03F484
:101E9800144207D09D000EFA05F427EA040701FA58
:101EA80005F52F430133082BF0D100234FF0010C27
:101EB8004FF00F0E03F108040CFA04F4144207D093
:101EC8009C000EFA04F526EA050601FA04F42643F6
:101ED8000133082BEED107624662F0BDF8B505461E
:101EE80002200C46174600F03BF92549254AB0FB6D
:101EF800F1F1904294BF0B463F236E68224A26F0C8
:101F08003F061E4394426E6012D801313E294FEAC3
:101F18004404B0FBF4F48ABF3F2329622B62042CEB
:101F280038BF0424E869C4F30B040443EC61F8BD2A
:101F3800164A9442FBD84FF4967253434FF47A7280
:101F4800B3FBF2F301332B6297B904EB4404B0FB03
:101F5800F4F4EB6923F48043EB61C4F30B030BB98E
:101F680044F00104EB6943F40043EB61E869DCE702
:101F780019214C43EB69B0FBF4F443F48043EBE7DD
:101F880040420F00BF4DC103A0860100801A060021
:101F980010B504681A4324F002040C4304608260FC
:101FA80010BD036801290CBF43F4806323F48063E8
:101FB80003607047036819B943F40063036070470E
:101FC80023F40063FAE702320CBF21F0010141F06B
:101FD800010101617047036843F001030360704722
:101FE800036843F4807303607047036843F4007325
:101FF80003607047016170470069C0B270470029EB
:10200800B4BF80694069084080B2003818BF012019
:1020180070474369022916BF23EA010183694161B8
:10202800704743680B4343607047436823EA0103E2
:1020380043607047024610B5CCB24068536874B12B
:1020480084050CD5CB0605D053690B4214BF01207B
:10205800002003E0506810F48060F5D110BD11F441
:102068007F40FBD013F48070F7E7FFF7D2BF000082
:10207800034B40F0BF6040F40030D860704700BFA9
:1020880000ED00E030B5234CE36803F4E063B3F5FA
:10209800E06F32D0E36803F4E063B3F5C06F2FD08C
:1020A800E36803F4E063B3F5A06F2CD0E36803F4AE
:1020B800E063B3F5806F29D0E368002403F4E0639C
:1020C800B3F5407F20D104250F23C4F10404C5F1E2
:1020D8000405E34001FA05F513402B430E4A1B01A2
:1020E8001118DBB281F800330123410900F01F0009
:1020F80003FA00F042F8210030BD04240025E3E78C
:1021080003240125E0E702242546DDE70124032511
:10211800DAE700BF00ED00E000E100E001228309FA
:1021280003F1804303F50433196800F01F0002FA35
:1021380000F00843186070470121830903F18043C8
:1021480003F504331A6800F01F0001FA00F022EAD0
:10215800000018607047FFF7E1BFFFF7EDBF000010
:102168004A4BF0B505461F4689B004AC03F110068A
:10217800224618685968083303C2B3421446F7D197
:102188006B4638697168424A03C303C35368C3F393
:102198008103022B35D151685368C1F383411C0177
:1021A80053684CBF11310231D80341BFD36A394853
:1021B80003F00F0301334CBFB0FBF3F3364B594325
:1021C8005368C3F3031320336B4413F8104C53685C
:1021D80021FA04F4C3F3022320336B4413F8206C70
:1021E8005368C3F3C22320336B4413F8183C24FA12
:1021F80003F0062D40D8DFE805F0430609070C2157
:102208002A002449DCE7204609B0F0BD24FA06F08C
:10221800FAE7136BD90531D55368C3F38133022B21
:1022280006D0032B08D0012B14BF40088008EBE729
:102238000623B0FBF3F0E7E7C008E5E7136B48F2C5
:10224800120013F0400F18BF4FF40040DCE7136B87
:102258009B07D9D0136B03F00303012B10D0136B2A
:1022680003F00303022B0DD0136B0A4803F003039A
:10227800032B18BF0020C7E70020C5E70748C3E7BE
:102288000846C1E74FF40040BEE700BFD03F000852
:102298000010024000127A0000093D00809FD5001E
:1022A80008B50C4B98420DD003F57443984210D1F1
:1022B80040F20E30FFF74FFF40F20E30BDE8084005
:1022C800FFF74BBF40F21140FFF745FF40F21140C6
:1022D800F4E708BD0044004038B5134B0446984263
:1022E8000D4617D003F57443984215D10620FFF721
:1022F80037FF22686B08120410D503EB4003B3FBC9
:10230800F5F1C1F3420321F00F010904090C194347
:10231800E16038BD0220EAE70020EAE70344B3FBA6
:10232800F5F189B2F4E700BF00440040036843F0C8
:10233800010303607047026822F008020260036824
:102348000B4303607047026822F0040202600368CE
:102358000B4303607047026822F0010202600268C2
:1023680022F40042026003680B430360704702686E
:1023780022F001020260826822F4006282608368AF
:102388000B4383607047826822F040028260836852
:102398000B4383607047826822F080028260836802
:1023A8000B438360704701F01F030121026A9940C3
:1023B800114301627047012310B5C1F38912145803
:1023C80001F01F0103FA01F12143115010BDC1F3BF
:1023D800891310B51C588B0D1A580123C1F30440FA
:1023E80003FA00F0104007D001F01F0103FA01F1D1
:1023F800214214BF1846002010BD0000284B1A685F
:1024080042F001021A601A689007FCD55968254AFB
:102418000A405A605A6822F0084222F474125A603C
:102428005A6822F440025A601A6822F0867222F42E
:1024380080321A60DA6A22F00F02DA621A6B22F42A
:10244800A17222F001021A635A6B22F001025A6348
:1024580000229A605A685A605A685A605A685A60E4
:102468005A6822F0036222F450225A605A6842F0F5
:10247800006242F480225A601A6842F080721A6040
:102488001A689101FCD55A6822F003025A605A680A
:1024980042F002025A605A681207FCD5704700BF22
:1024A800001002400C00FF0808B500F00DFA01F01A
:1024B800D7F94FF4E131094801F0B6FA01F0C6FB4B
:1024C80001F0A8FB01F0CFFB00F00CF8012000F0B0
:1024D80019FA00F031F800F049F8F7E70044004035
:1024E8007047000008B52A220E490F4801F002FB88
:1024F8004FF480720D490C4801F044FB00F01AFFBC
:102508000B4B40B1002201214FF090401A70BDE8FA
:102518000840FFF7AFBC01224FF4007105481A705C
:10252800F5E700BF320200200044004030010020DF
:1025380028010020000400480A4B1B78012B01D118
:1025480001F002B86BB96422074B1B68B3FBF2F1C8
:1025580002FB11332BB94FF09042536983F001030A
:102568005361704728010020B4000020484B2DE932
:10257800F74F1B68474A5343B3F1333F79D80320D9
:10258800FFF732FC002874D16FF03203424C2370FD
:102598006FF054036370414BA070B3F90210B3F9A4
:1025A8001E20B3F91860B3F900A0B3F904B0B3F969
:1025B8000690B3F90880B3F90AE0B3F90C50B3F9FF
:1025C8001CC0E070207160712181B3F91000A181F5
:1025D800B3F91410E280E283314AA4F80AA0A4F8FF
:1025E8001090A4F81280A4F814E0E5822083618397
:1025F8000196A683A4F80EB0A4F820C0B3F9207001
:10260800B3F92260274B12781B78920042EA430202
:10261800254B8AEA0B0A1B7867841343E38483EA11
:102628000A0389EA030988EA09088EEA080E8CEA8F
:102638000E0C87EA0C07A6847E407540019B684013
:102648004140594081F42B4181F0CD01032021857F
:10265800FFF7C0FB2A22154B03209A641C65FFF77D
:10266800AFFB4FF09042D2F8143483F40073C2F8F1
:1026780014340F4B1A88511C9F2A198004D9012140
:102688000C4A1170A0221A8003B0BDE8F08F00BF79
:10269800B4000020CDCCCCCC320200208402002033
:1026A80028010020310200203002002000000240F2
:1026B8005C0200205E0200204AF6CD33028810B585
:1026C8009A421ED1848843886340848D6340C488BD
:1026D80063400489634044896340848963405A4065
:1026E800C38D92B293420CD100F1300350F8042B01
:1026F800984241F8042BF9D10023024A1380024A78
:10270800137010BD5C0200205E020020F8B50420A2
:10271800FFF76AFB194DC0F580742968A14212D0F1
:1027280018D2631A302B15D1154B1944154B01F1EA
:10273800300251F8040B914243F8040BF9D11249C5
:102748001048FFF7B9FFB4F5807F0ABF00232C605B
:102758002B60F8BDC1F580763319302BF3D1094BC6
:10276800074F324618463944FDF73EFD002CE6D0A7
:10277800224639463044FDF737FDE0E72C010020BA
:1027880030010020E8000020B80000207047000059
:102798002DE9F0410124FF26184DA0402C70184D5A
:1027A800C0B22E70174E184F30701848184E01706E
:1027B800184919480B60194B4FF4E06132701C70CE
:1027C800FFF72FFC44F62164DFF84C803946404679
:1027D800FFF715FC18B1013CA4B2002CF6D10E4845
:1027E800FFF7FEFB44F6216332781AB1013B9BB236
:1027F800002BF9D1287840B2BDE8F08118010020FB
:102808002101002020010020020000801B0100207F
:102818001901002024010020005400401A01002062
:102828002DE9F0410024FF261C4D40002C701C4D62
:10283800C0B22E701B4E30701B481C4E0170327097
:1028480001221B491B480B601B4B4FF4E0611A70B7
:10285800FFF7E7FB3378022B03D121461548FFF732
:10286800A9FB44F62164154FDFF8488039464046F5
:10287800FFF7C5FB18B1013CA4B2002CF6D10D48F6
:10288800FFF7AEFB44F6216332781AB1013B9BB2E5
:10289800002BF9D1287840B2BDE8F081180100205A
:1028A80021010020200100201B0100201901002027
:1028B8001C010020005400401A0100200200008082
:1028C80013460122FFF7ACBF4FF47A720B4B1B681B
:1028D800B3FBF2F3013BB3F1807F0DD24FF0E0225E
:1028E800F0215361064B072083F8231000219161E2
:1028F800106183F823107047FEE700BF68000020CE
:1029080000ED00E0024B18601A68002AFCD17047FD
:1029180060020020034B1A6812B11A68013A1A6063
:10292800704700BF60020020024A13680133136039
:10293800704700BF64020020014B1B6803607047AA
:102948006402002013B5114C94F824302BB10028F0
:1029580018BF02208DF8070008E0A37A9BB1002871
:10296800F8D0637C7BB901238DF80730D4E90010D7
:102978000122497C00780DF10703FFF709FF10B920
:102988009DF80730637402B010BD00BF6C000020D2
:10299800F7B51D4C0646A37A0D461BB94FF0FF301C
:1029A80003B0F0BDD4E900100222097C007801AB25
:1029B800FFF736FF0028F1D1BDF80470FFBA15B152
:1029C8002846FFF7B9FF3846FEF7B2FF65680446A8
:1029D800B5F90800FEF7ACFF01462046FEF7F2FE07
:1029E8000446E888FEF7A4FF01462046FFF7A8F84A
:1029F8000649FEF7E9FE4FF08F41FEF7EDFFFFF7BE
:102A08003BF930600020CBE76C00002000000C424E
:102A180013B5584CA37A1BB94FF0FF3002B010BD64
:102A28000023D4E900108DF807300122497C007892
:102A38000DF10703FFF7ACFE0028EDD1D4E9001033
:102A48000122497900780DF10703FFF7A1FE00285C
:102A5800E2D1D4E900100122097900780DF10703C9
:102A6800FFF796FE0028D7D1D4E90030197994F8F9
:102A78002430002B42D00C238DF807300122007837
:102A88000DF10703FFF784FE0028C5D13220FFF7B8
:102A980039FFD4E90010C0238DF80730A37A01224A
:102AA800DB0744BFE0238DF80730097900780DF182
:102AB8000703FFF76DFE0028AED1D4E90010637C50
:102AC8000122002B18BF02238DF80730497C0078BB
:102AD8000DF10703FFF75CFE00289DD10DF10703F8
:102AE8008DF80700D4E90010012249790078FFF732
:102AF8004FFE003818BF012040428FE704238DF8AD
:102B08000730012200780DF10703FFF741FE002886
:102B180082D1A37C63BBA37A13F0010F0CBF4023BF
:102B28006023D4E900108DF8073001220979007874
:102B38000DF10703FFF72CFE00287FF46DAF32205C
:102B4800FFF7E0FED4E90010637C0122003B18BFC8
:102B580001238DF80730497C00780DF10703FFF752
:102B680017FE00287FF458AFD4E90010024BBBE7EA
:102B78004023D6E76C0000207C00002013B51A4CD7
:102B8800A37A1BB94FF0FF3002B010BDB0F57A7FC1
:102B980025D006D8FA2809D0B0F5FA7FF2D1082353
:102BA80005E0B0F5FA6FEDD1182300E000238DF8A9
:102BB80007309DF80720237AB3EBD20F11D0D4E960
:102BC80000100122897900780DF10703FFF7E0FD75
:102BD8000028D7D19DF80730DB082372D4E71023EB
:102BE800E5E70020D0E700BF6C00002013B5184CC3
:102BF800A37A1BB94FF0FF3002B010BD082823D0CC
:102C080005D8022807D00428F4D1082304E01028A6
:102C1800F0D1182300E000238DF807309DF8072035
:102C2800637AB3EBD20F11D0D4E900100122C9792D
:102C380000780DF10703FFF7ABFD0028DAD19DF806
:102C48000730DB086372D7E71023E5E70020D3E7F6
:102C58006C00002013B5194CA37A1BB94FF0FF3054
:102C680002B010BDBB2816D901238DF80730E27ACF
:102C78009DF807309A421FD0D4E9001001228978C4
:102C880000780DF10703FFF783FD0028E6D19DF8D2
:102C98000730E372E4E7612801D90223E5E7292830
:102CA80001D90323E1E7132801D90423DDE7092823
:102CB8008CBF05230623D8E70020D1E76C0000204D
:102CC800F8B5114E96F82430E3B9B47A9CB100F007
:102CD800FE052C40307D377C3474641B18BF4FF0E0
:102CE800FF3428430AD00120FFF72CFE45B1FFF737
:102CF8008FFE28B137744FF0FF3401E0FFF722FE52
:102D08002046F8BD0024FBE76C0000202DE9F04FB9
:102D1800654D1E4695F8243007468946924685B08B
:102D280023B14FF0FF3005B0BDE8F08F3370AB7AB8
:102D3800002BF6D02B7C002BF3D013F0400418BFE7
:102D48000224980648BF0234D90644BF0234E4B2CC
:102D58001A0748BF0634D5E900104FF00202097B74
:102D6800007801AB48BFE4B2FFF75AFD0028D8D17C
:102D7800BDF804301FFA84F85BBA1FFA83FBD84504
:102D880001D90020CFE768684388BBEB530F11D9FE
:102D980029680122C97C007801ABFFF741FD0028B2
:102DA800BFD19DF80430DB0604D5FFF731FE6FF084
:102DB8000100B8E75046FFF7BFFDD5E900102246ED
:102DC800497B007801ABFFF72BFD0028A9D1BBFB9D
:102DD800F4F30E9A013B13703070002CD1D02A7C8A
:102DE80012F0080216D0BDF80430B8F1060F5BBA2D
:102DF800A9F80030BDF806305BBAA9F80230BDF872
:102E080008305BBAA9F80430337843F0080333700C
:102E1800B7D006222B7C580615D502F110036B4457
:102E280013F80C1C531C9BB210336B4413F80C3C66
:102E3800023243EA01233B80337892B243F04003E5
:102E4800904533709DD02B7C990615D502F110035F
:102E58006B4413F80C1C531C9BB210336B4413F8CF
:102E68000C3C023243EA01237B80337892B243F070
:102E780020039045337084D02B7CDB0681D502F18A
:102E8800100301326B4492B213F80C1C02F11003C8
:102E98000DEB030212F80C3C43EA0123BB803378A4
:102EA80043F0100333706CE76C0000202DE9F34108
:102EB800234F064697F824308846154623B94FF025
:102EC800FF3002B0BDE8F081BB7A002BF7D0D7E91C
:102ED80000100222097B007801ABFFF7A1FC002853
:102EE800EDD1BDF8044062BA94B2A64201D9287067
:102EF800E5E778684388B4EB530F11D939680122A4
:102F0800C97C007801ABFFF78BFC0028D7D19DF86E
:102F18000430DB0604D5FFF77BFD6FF00100D0E736
:102F2800D7E900104346497B0078F2B2FFF778FCF6
:102F38000028C4D1B4FBF6F4013C2C70C1E700BFF3
:102F48006C00002037B5384C0546A37C834269D015
:102F5800636801221878236819790DF107036DB3A6
:102F6800FFF75EFC18B14FF0FF3003B030BD9DF89D
:102F78000730D4E9001023F020038DF80730012230
:102F8800097900780DF10703FFF702FC0028EAD160
:102F98000320FFF7B7FC02238DF8073094F822309E
:102FA80013B182238DF8073094F8233073B39DF85A
:102FB800073043F030038DF8073027E0FFF730FC87
:102FC8000028D0D1D4E90010A27A9DF80730D207A2
:102FD8004CBF43F0200303F0DF038DF807300122D4
:102FE800097900780DF10703FFF7D2FB0028BAD161
:102FF8000320FFF787FC94F8223094F82320002B55
:1030080018BF80238DF80730002AD2D1D4E90010E8
:103018000122C97D00780DF10703FFF7B9FB0028ED
:10302800A1D1A5740020A0E76C00002037B5174C8B
:10303800054694F82330834222D000280CBF002391
:103048003023A27C8DF807301AB143F002038DF8C3
:10305800073094F822302BB19DF8073063F07F03D6
:103068008DF80730D4E900100122C97D00780DF1F0
:103078000703FFF78DFB28B984F8235003B030BD50
:103088000020FBE74FF0FF30F8E700BF6C0000209E
:10309800282837B5044603D94FF0FF3003B030BDB8
:1030A800264D90B9FFF7C2FFD5E9001007238DF828
:1030B80004408DF805300222497D007801ABFFF706
:1030C80067FB0028E8D12875E8E70120FFF7AEFF85
:1030D8002023012C8DF8043020D1002305208DF801
:1030E8000530FFF7B7FDD5E900109DF8053002223D
:1030F8009B0143F007038DF80530497D007801AB4B
:10310800FFF746FB04460028C6D10823AB7201230B
:1031180028732B75FFF7D4FD2046BFE7052C01D88F
:103128000123DBE7142C95BF022303230A20142074
:1031380094BF8DF805308DF80530D2E76C0000207B
:10314800F7B51E4E0546B37A1BB94FF0FF3003B0F2
:10315800F0BD96F82440002CF7D1337D4BB1431EC7
:10316800272B03D8FFF794FF2046F0E72046FFF708
:103178008FFFD6E90010B5F57A7F28BF4FF47A752E
:10318800042D38BF04254FF47A77B7FBF5F5013DD8
:103198008DF807500122497800780DF10703FFF7F1
:1031A800F7FA04460028D0D19DF807000130B7FB94
:1031B800F0F0F0814008FFF74DFDD5E76C000020E6
:1031C80010F0700337B5044613D001232B4D8DF84A
:1031D8000730D5E900100122497D00780DF1070379
:1031E800FFF7D6FA48B100234FF0FF30AB7203B0B7
:1031F80030BD0028EAD14023E8E79DF8073023F0E6
:1032080040032B73630656BF04238DF807008DF81F
:103218000730A10658BF9DF80730D5E900105CBFFC
:1032280043F002038DF80730E20658BF9DF80730D7
:103238004FF001025CBF43F001038DF8073023070C
:1032480058BF9DF80730897D5CBF43F038038DF87F
:10325800073000780DF10703FFF79AFA0028C2D16A
:1032680014F0F70F01D0FFF7E1FEAC720024322012
:103278002C75FFF747FB2046B9E700BF6C0000201C
:10328800802337B52A4C8DF80030D4E900106B46FE
:103298000122497D0078FFF77BFA054620B14FF0FF
:1032A800FF34204603B030BD6420FFF72BFBD4E980
:1032B80000108DF800506B460122497D0078FFF719
:1032C80067FA0028EBD14FF6FF73E38123744FF0C0
:1032D800FF33FF22A3600123A082C4F81600C4F8BC
:1032E8001A00C4F81E00606262824FF4FA606384B8
:1032F8002373FFF743FC0028D1D10220FFF776FCA7
:103308000028CCD12A20FFF7A5FC0028C7D13220FD
:10331800FFF716FF0028C2D1FFF7D2FC0028BED164
:10332800FFF710FE04460028B9D1FFF749FFB8E7B8
:103338006C00002010B51148FFF7D2F8FFF7A0FF86
:10334800044630B10E48FFF7CBF84FF0FF34204663
:1033580010BD7820FFF734FF7820FFF7B1FC142068
:10336800FFF7EEFE0322074B0748C3E903445A70F0
:103378009C705C61FFF7B4F8E9E700BF58400008AB
:1033880070400008680200207D400008000000002E
:103398002DE9F04F6A4C85B0E068FEF7C9FA4FF0A6
:1033A8004251FEF719FB82462069FEF7C1FA4FF039
:1033B8004251FEF711FB05466069FEF7B9FA4FF076
:1033C8004251FEF709FB0646A069FEF7B1FA4FF035
:1033D8004251FEF701FB314607463046FEF7FCFA3C
:1033E800834629462846FEF7F7FA5946FEF7ECF9D0
:1033F8000146FEF7E9F901464FF07E50FEF7E2F983
:10340800FDF75CFE8046894650462946FEF7E4FAF9
:10341800394600903046FEF7DFFA009B0146184611
:10342800FEF7D2F90146FEF7CFF9FDF747FE42460F
:103438004B46FCF77FFF8046894650463146FEF7EB
:10344800CBFA394600902846FEF7C6FA009B01469B
:103458001846FEF7B7F90146FEF7B6F9FDF72EFE56
:10346800FCF738FFCDE9000139463846FEF7B4FAD3
:103478005946FEF7A9F90146FEF7A6F901464FF0AD
:103488007E50FEF79FF9FDF719FE02460B4650469F
:103498003946CDE90223FEF79FFA3146074628460A
:1034A800FEF79AFA01463846FEF78EF90146FEF70E
:1034B8008BF9FDF703FEDDE90223FCF73BFF064627
:1034C8000F4640464946FEF729F9FDF7F7FD1AA3CE
:1034D800D3E90023FDF74AFE00221A4BFDF746FE0A
:1034E800FEF7F4F8A083DDE90001FEF717F9FDF710
:1034F800E5FD11A3D3E90023FDF738FE0022114BA7
:10350800FDF734FEFEF7E2F83946E0833046FEF771
:1035180005F9FDF7D3FD08A3D3E90023FDF726FE3F
:103528000022084BFDF722FEFEF7D0F8208405B0F4
:10353800BDE8F08FAFF30080F8C1631ADCA54C40FA
:10354800840200200000594030B5544B8BB0D3E9B9
:1035580000130DF10902C97C1878FFF7B1F99DF83D
:1035680009304F4C13F0030F18BF012304A818BFEC
:103578002371FFF7E1F9049B22699A423CBF03F5E6
:10358800FA732361237934BF01250025002B49D024
:10359800A378002B46D00DF10B03019305AB0093E4
:1035A800404A03AB08A906A800F082F89DF80B3042
:1035B80003B92371BDF8143003F07003A3B13A4C7A
:1035C800BDF818302380BDF81A306380BDF81C3070
:1035D800A3804DB1354D03A92846FFF7D9F96422D8
:1035E8002B6853431B146384BDF81420110709D5B5
:1035F8002D4BBDF82010D980BDF822101981BDF8D7
:1036080024105981D2050BD5264A274B1168D96059
:10361800516819619168D26859619A61FFF7B8FEDB
:103628000BB030BD2379002BFAD0002323710DF1A4
:103638000B03009303AA0DF10A0308A906A8FFF7D4
:1036480065FB9DF80B300BB1012323719DF80A30FF
:1036580013F0700F13D0144CBDF818302380BDF848
:103668001A306380BDF81C30A38045B103A905A8B2
:10367800FFF78EF96422059B53431B1463849DF85E
:103688000A301B07CCD5084BBDF82020DA80BDF8DE
:1036980022201A81BDF824205A81C1E76C0000203D
:1036A80068020020A802002084020020B80200203E
:1036B8002DE9F04F9946002389B0129EDFF89CA1AE
:1036C8000746884693466946139A9AF80E0033804F
:1036D800FFF7ECFB054650BBBAF80A3013F0140F9D
:1036E80000F0B980019900980CBA4FEA244C0CFB01
:1036F8000CFC00BACBF80000001400FB00CC0299C7
:10370800039A09BACBF80810091401FB01C112BACF
:10371800CBF80C20121402FB021202F17142B2F132
:10372800007FCBF8044005D9FFF772F935804FF0D8
:10373800FF358CE0328842F48072328010225806BD
:1037480034D502F12001694411F8200C511CC9B28A
:103758002031694411F8201C41EA0021A8F8001022
:10376800911CC9B22031694411F8200CD11CC9B28E
:103778002031694411F8201C41EA0021A8F8021000
:10378800111DC9B22031694411F8200C511DC9B26C
:103798002031694411F8201C063241EA0021A8F8BA
:1037A80004103188D2B241F00801318013F4C07F8F
:1037B80031D002F12001694411F8200C511CC9B222
:1037C8002031694411F8201C41EA00213980911CFC
:1037D800C9B22031694411F8200CD11CC9B220317A
:1037E800694411F8201C41EA00217980111DC9B2F1
:1037F8002031694411F8200C511DC9B220316944A7
:1038080011F8201C063241EA0021B9803188D2B271
:1038180041F070013180990716D00DEB02046378EE
:10382800E678DA0708D5DAF800302BB106F0070198
:103838000131C6F3C200984763781B0704D5DAF84C
:1038480004300BB1B00998474846FFF775F8284689
:1038580009B0BDE8F08F024671E700BFBC02002046
:1038680038B540F21150FEF759FC40F21250FEF7FD
:1038780055FC01236A4C194600224FF09040FEF790
:10388800BBFA20464FF4007300220121FEF7B4FA78
:1038980020464FF4807300220121FEF7ADFA20463E
:1038A800202300220121FEF7A7FA20461023002238
:1038B8000121FEF7A1FA0123032200214FF09040D5
:1038C800FEF7BCFA20464FF4007303220021FEF7EE
:1038D800B5FA20464FF4807303220021FEF7AEFAB2
:1038E8002046202303220021FEF7A8FA10230322F2
:1038F80020460021FEF7A2FA01214FF09040FEF782
:10390800BBFA20464FF40071FEF7B6FA20464FF492
:103918008071FEF7B1FA20462021FEF7ADFA10219A
:103928002046FEF7A9FA40F21150FEF7F7FB40F2E5
:103938001350FEF7F3FB0022102311464FF090407E
:10394800FEF75AFA0022374D4FF4804311462846B5
:10395800FEF752FA40F21250FEF7E0FB40F2157003
:10396800FEF7DCFB204640220121FEF787FA2046BD
:1039780080220121FEF782FA2046402301220221FB
:10398800FEF73AFA2046402303220121FEF756FAB1
:103998002046802301220221FEF72EFA80230322EB
:1039A80001212046FEF74AFA40F21150FEF7B6FB15
:1039B80040F21250FEF7B2FB40F21350FEF7AEFB96
:1039C8000022284611464FF40043FEF715FA022359
:1039D800002201214FF09040FEF70EFA20464FF4E6
:1039E800806300220121FEF707FA02230322002147
:1039F8004FF09040FEF722FA4FF4806320460322EE
:103A08000021FEF71BFA02214FF09040FEF734FA2E
:103A18002046BDE838404FF48061FEF72DBA00BF5C
:103A28000004004800080048F8B504460E462D4D2D
:103A380040F21150FEF772FB631B5D425D412A4B59
:103A480033F81500FEF76AFB284B012153F825705F
:103A58004FF090403A46FEF711FA254B012153F8F2
:103A680025504FF090402A46FEF708FA3B460122BF
:103A780002214FF09040FEF7BFF93B46012200219A
:103A88004FF09040FEF7DAF92B46012202214FF061
:103A98009040FEF7B1F92B46012200214FF09040EB
:103AA800FEF7CCF92046FEF7FBFB31462046FEF731
:103AB80013FC20460821FEF73EFC20460421FEF7B1
:103AC80042FC20460021FEF746FC00212046FEF776
:103AD8004EFC2046FEF72AFC2046BDE8F8400421AB
:103AE800FEF769BC00440040D8400008FC400008CC
:103AF800E84000082DE9F04107461F4C90B04FF40C
:103B0800A06088461546FEF709FB3B1B5C425C41FA
:103B18001A4B1E5D3046FEF7DBF8012200231849D8
:103B2800CDE90832CDE90B3351F824104FF4405356
:103B38006C460E950D92CDF828800AAD07910F932B
:103B48000FCD0FC495E8030084E8030007AB0ECB44
:103B58003046FEF7D9F83046FEF71EF93046FEF734
:103B680025F938468021FEF716FC304610B0BDE82E
:103B7800F041FEF725B900BF00440040F8400008B6
:103B8800F04000082DE9F04107461F4C90B04FF473
:103B9800A06088461546FEF7C1FA3B1B5C425C41B3
:103BA8001A4B1E5D3046FEF793F8194A002352F867
:103BB8002420CDE90B33079201220D93CDE9083279
:103BC8006C464FF440530E95CDF828800AAD0F93FC
:103BD8000FCD0FC495E8030084E8030007AB0ECBB4
:103BE8003046FEF791F83046FEF7CCF83046FEF73F
:103BF800DDF838464021FEF7C6FB304610B0BDE878
:103C0800F041FEF7DDB800BF00440040E440000882
:103C1800DC40000810B50B4C4FF4804220460A499E
:103C2800FEF75CF90022204611462423FEF7B0F97E
:103C38002046FEF7D0F92046BDE810400121FEF7E6
:103C4800B0B900BF00540040801A060008B5012230
:103C580000211B20FEF716FABDE8084001220021CA
:103C68001C20FEF70FBA08B54FF4C060FEF700FA43
:103C7800002217201146FEF705FABDE80840002289
:103C880020201146FEF7FEB938B5644B1A78012A90
:103C9800D1B253D16248FEF7CDF940B16FF00102BD
:103CA800604B19785E48BDE83840FEF78CB90221B0
:103CB8005B48FEF7BFF928B1BDE8384002215848F3
:103CC800FEF7D3B980215648FEF7B4F900282AD068
:103CD800554C23785BB2002B09DD544B50481978BA
:103CE800FEF788F92378013B5BB223701BE0504C48
:103CF8002378CBB14F4A4A481368591C1160197888
:103D0800FEF778F92378013BDBB22370237803F0C0
:103D1800FF020BB9484B1A704FF4FA7300BF013B0E
:103D28009BB2002BFAD138BD3D48FEF75EF9BDE8DD
:103D380038404FF4E0613A48FEF777B91B78002B1A
:103D4800F1D1394C0121237835481B0617D4FEF7E9
:103D580071F90028A2D102213148FEF76BF9002839
:103D6800AAD180212E48FEF765F90028DBD02378F8
:103D78005BB2002BB1DC2A48FEF732F9B2E7FEF756
:103D880059F918B1274B012219788BE702212448E9
:103D9800FEF750F958B1264B1A78012A02D01B7841
:103DA800022B89D100211E48FEF7FBF884E7402149
:103DB8001B48FEF73FF90028B5D01D4C2378002B8F
:103DC800B1D02378032B0AD1154D04212846FEF7DC
:103DD80031F90028F9D000211148FEF7E2F8174B15
:103DE8000F481D686A1C1A60FEF706F928702378C8
:103DF800013BDBB22370237803F0FF04002B92D140
:103E08000748FEF7F2F80C4B012105481C70FEF735
:103E1800C8F801210248FEF7CDF888E7180100200C
:103E280000540040200100201A0100201B0100203E
:103E38001901002024010020210100201C0100207C
:103E480008B54FF480612948FEF7F4F820B14FF423
:103E580080612648FEF709F94FF400412348FEF730
:103E6800E9F820B14FF400412048FEF7FEF84FF47E
:103E780080411E48FEF7DEF820B14FF480411B4810
:103E8800FEF7F3F84FF400611848FEF7D3F820B1B5
:103E98004FF400611548FEF7E8F84FF40071134835
:103EA800FEF7C8F820B14FF400711048FEF7DDF8AE
:103EB8004FF480710D48FEF7BDF820B14FF48071C2
:103EC8000A48FEF7D2F84FF480510848FEF7B2F8D6
:103ED80020B14FF480510548FEF7C7F8BDE8084007
:103EE8004FF4E0610148FEF7A0B800BF005400405D
:103EF8007047FEE7FEE7FEE7FEE77047704770474A
:103F080008B5FEF711FDBDE80840FEF703BD000047
:103F180008B507490748FEF75AFA40B140F204715C
:103F28000448FEF740FABDE80840FEF72FBC08BD7C
:103F3800040004070038014008B507490748FEF7A0
:103F480046FA40B140F204710448FEF72CFABDE885
:103F58000840FEF7DBBB08BD04000407004400402E
:103F6800FFF792BEFFF76CBF002103E00A4B5B58D6
:103F78004350043109480A4B42189A42F6D3094A79
:103F880002E0002342F8043B074B9A42F9D3FEF7BC
:103F980035FAFEF789FA7047104100080000002042
:103FA8009800002098000020CC020020FEE70000C6
:103FB800F8B500BFF8BC08BC9E467047F8B500BF0E
:083FC800F8BC08BC9E467047DE
:103FD00000000000000000000102030406070809B9
:103FE0000000000001020304182D4454FB21E9BF26
:103FF000D221337F7CD90240D221337F7CD902C0C9
:104000000000000000000080182D4454FB210940EE
:10401000182D4454FB2109C04FBB610567ACDD3F3F
:10402000182D4454FB21E93F9BF681D20B73EF3FDF
:10403000182D4454FB21F93FE2652F227F2B7A3C57
:10404000075C143326A6813CBDCBF07A8807703C10
:10405000075C143326A6913C436F6E6669677572E0
:10406000696E67204D5055363035302E2E2E20008B
:104070004641494C20284D5055290D0A00204F4BF0
:104080000D0A00006800000476005401F7FD0001ED
:1040900075191A0C6A231B1C00001F207274433B05
:1040A0004138393A006B6C376F06246D6E70000032
:1040B0008300000000080000000100183200050025
:1040C000000020410000D242295C0F3E9A99993E9F
:1040D0003333733F295C0F3E0E061107243801402D
:1040E0002444004002040000000400000800000016
:1040F000283801402844004001030000000200006D
:084100000400000000000000B3
:04410800D1010008D9
:04410C00A9010008FD
:10411000040000200000000000000000000000007B
:10412000000000000000000000000000000000008F
:10413000000000000000000000000000000000007F
:10414000000000000000000000000000000000006F
:10415000000000000000000000000000000000005F
:10416000000000000000000000000000000000004F
:1041700000000000FF00000000A24A049040000878
:104180008440000800000000000000000000000063
:10419000000000000000000000000000000000001F
:0841A00000000000B04000081F
:0400000508003F713F
:00000001FF
